{
    "contractName": "Transactions",
    "abi": [
        {
            "anonymous": false,
            "inputs": [
                {
                    "indexed": false,
                    "internalType": "bool",
                    "name": "isImage",
                    "type": "bool"
                },
                {
                    "indexed": false,
                    "internalType": "uint256",
                    "name": "id",
                    "type": "uint256"
                },
                {
                    "indexed": false,
                    "internalType": "string",
                    "name": "hash",
                    "type": "string"
                },
                {
                    "indexed": false,
                    "internalType": "string",
                    "name": "title",
                    "type": "string"
                },
                {
                    "indexed": false,
                    "internalType": "string",
                    "name": "description",
                    "type": "string"
                },
                {
                    "indexed": false,
                    "internalType": "string",
                    "name": "category",
                    "type": "string"
                },
                {
                    "indexed": false,
                    "internalType": "uint256",
                    "name": "tipAmount",
                    "type": "uint256"
                },
                {
                    "indexed": false,
                    "internalType": "address payable",
                    "name": "author",
                    "type": "address"
                },
                {
                    "indexed": false,
                    "internalType": "string",
                    "name": "authorGmailName",
                    "type": "string"
                },
                {
                    "indexed": false,
                    "internalType": "string",
                    "name": "authorEmail",
                    "type": "string"
                },
                {
                    "indexed": false,
                    "internalType": "string",
                    "name": "authorPic",
                    "type": "string"
                }
            ],
            "name": "PostCreated",
            "type": "event"
        },
        {
            "anonymous": false,
            "inputs": [
                {
                    "indexed": false,
                    "internalType": "address",
                    "name": "tipper",
                    "type": "address"
                },
                {
                    "indexed": false,
                    "internalType": "address",
                    "name": "author",
                    "type": "address"
                },
                {
                    "indexed": false,
                    "internalType": "uint256",
                    "name": "amount",
                    "type": "uint256"
                },
                {
                    "indexed": false,
                    "internalType": "uint256",
                    "name": "postId",
                    "type": "uint256"
                },
                {
                    "indexed": false,
                    "internalType": "uint256",
                    "name": "timestamp",
                    "type": "uint256"
                }
            ],
            "name": "Tips",
            "type": "event"
        },
        {
            "anonymous": false,
            "inputs": [
                {
                    "indexed": false,
                    "internalType": "address",
                    "name": "from",
                    "type": "address"
                },
                {
                    "indexed": false,
                    "internalType": "address",
                    "name": "receiver",
                    "type": "address"
                },
                {
                    "indexed": false,
                    "internalType": "uint256",
                    "name": "amount",
                    "type": "uint256"
                },
                {
                    "indexed": false,
                    "internalType": "string",
                    "name": "message",
                    "type": "string"
                },
                {
                    "indexed": false,
                    "internalType": "uint256",
                    "name": "timestamp",
                    "type": "uint256"
                },
                {
                    "indexed": false,
                    "internalType": "string",
                    "name": "keyword",
                    "type": "string"
                }
            ],
            "name": "Transfer",
            "type": "event"
        },
        {
            "inputs": [
                {
                    "internalType": "address payable",
                    "name": "receiver",
                    "type": "address"
                },
                {
                    "internalType": "uint256",
                    "name": "amount",
                    "type": "uint256"
                },
                {
                    "internalType": "string",
                    "name": "message",
                    "type": "string"
                },
                {
                    "internalType": "string",
                    "name": "keyword",
                    "type": "string"
                }
            ],
            "name": "addToBlockchain",
            "outputs": [],
            "stateMutability": "nonpayable",
            "type": "function"
        },
        {
            "inputs": [
                {
                    "internalType": "string",
                    "name": "_postHash",
                    "type": "string"
                },
                {
                    "internalType": "string",
                    "name": "_title",
                    "type": "string"
                },
                {
                    "internalType": "string",
                    "name": "_description",
                    "type": "string"
                },
                {
                    "internalType": "string",
                    "name": "_category",
                    "type": "string"
                },
                {
                    "internalType": "bool",
                    "name": "isImage",
                    "type": "bool"
                },
                {
                    "internalType": "string",
                    "name": "_authorGmailName",
                    "type": "string"
                },
                {
                    "internalType": "string",
                    "name": "_authorEmail",
                    "type": "string"
                },
                {
                    "internalType": "string",
                    "name": "_authorPic",
                    "type": "string"
                }
            ],
            "name": "createPost",
            "outputs": [],
            "stateMutability": "nonpayable",
            "type": "function"
        },
        {
            "inputs": [],
            "name": "getAllTransactions",
            "outputs": [
                {
                    "components": [
                        {
                            "internalType": "address",
                            "name": "sender",
                            "type": "address"
                        },
                        {
                            "internalType": "address",
                            "name": "receiver",
                            "type": "address"
                        },
                        {
                            "internalType": "uint256",
                            "name": "amount",
                            "type": "uint256"
                        },
                        {
                            "internalType": "string",
                            "name": "message",
                            "type": "string"
                        },
                        {
                            "internalType": "uint256",
                            "name": "timestamp",
                            "type": "uint256"
                        },
                        {
                            "internalType": "string",
                            "name": "keyword",
                            "type": "string"
                        }
                    ],
                    "internalType": "struct Transactions.TransferStruct[]",
                    "name": "",
                    "type": "tuple[]"
                }
            ],
            "stateMutability": "view",
            "type": "function"
        },
        {
            "inputs": [],
            "name": "getTransactionCount",
            "outputs": [
                {
                    "internalType": "uint256",
                    "name": "",
                    "type": "uint256"
                }
            ],
            "stateMutability": "view",
            "type": "function"
        },
        {
            "inputs": [
                {
                    "internalType": "uint256",
                    "name": "",
                    "type": "uint256"
                }
            ],
            "name": "post",
            "outputs": [
                {
                    "internalType": "bool",
                    "name": "isImage",
                    "type": "bool"
                },
                {
                    "internalType": "uint256",
                    "name": "id",
                    "type": "uint256"
                },
                {
                    "internalType": "string",
                    "name": "hash",
                    "type": "string"
                },
                {
                    "internalType": "string",
                    "name": "title",
                    "type": "string"
                },
                {
                    "internalType": "string",
                    "name": "description",
                    "type": "string"
                },
                {
                    "internalType": "string",
                    "name": "category",
                    "type": "string"
                },
                {
                    "internalType": "uint256",
                    "name": "tipAmount",
                    "type": "uint256"
                },
                {
                    "internalType": "address payable",
                    "name": "author",
                    "type": "address"
                },
                {
                    "internalType": "string",
                    "name": "authorGmailName",
                    "type": "string"
                },
                {
                    "internalType": "string",
                    "name": "authorEmail",
                    "type": "string"
                },
                {
                    "internalType": "string",
                    "name": "authorPic",
                    "type": "string"
                }
            ],
            "stateMutability": "view",
            "type": "function"
        },
        {
            "inputs": [],
            "name": "postCount",
            "outputs": [
                {
                    "internalType": "uint256",
                    "name": "",
                    "type": "uint256"
                }
            ],
            "stateMutability": "view",
            "type": "function"
        },
        {
            "inputs": [
                {
                    "internalType": "address payable",
                    "name": "author",
                    "type": "address"
                },
                {
                    "internalType": "uint256",
                    "name": "amount",
                    "type": "uint256"
                },
                {
                    "internalType": "uint256",
                    "name": "postId",
                    "type": "uint256"
                }
            ],
            "name": "tipPostRecord",
            "outputs": [],
            "stateMutability": "nonpayable",
            "type": "function"
        },
        {
            "inputs": [
                {
                    "internalType": "uint256",
                    "name": "",
                    "type": "uint256"
                }
            ],
            "name": "tipTx",
            "outputs": [
                {
                    "internalType": "address",
                    "name": "tipper",
                    "type": "address"
                },
                {
                    "internalType": "address",
                    "name": "author",
                    "type": "address"
                },
                {
                    "internalType": "uint256",
                    "name": "amount",
                    "type": "uint256"
                },
                {
                    "internalType": "uint256",
                    "name": "postId",
                    "type": "uint256"
                },
                {
                    "internalType": "uint256",
                    "name": "timestamp",
                    "type": "uint256"
                }
            ],
            "stateMutability": "view",
            "type": "function"
        },
        {
            "inputs": [],
            "name": "tipsCount",
            "outputs": [
                {
                    "internalType": "uint256",
                    "name": "",
                    "type": "uint256"
                }
            ],
            "stateMutability": "view",
            "type": "function"
        }
    ],
    "bytecode": "60806040526000600155600060035534801561001a57600080fd5b506118ce8061002a6000396000f3fe608060405234801561001057600080fd5b50600436106100935760003560e01c8063306d82f211610066578063306d82f2146100e657806388ca6e8f146100f9578063caa5863c1461013f578063cc2d7ead14610169578063da054b251461017c57600080fd5b806317906c2e1461009857806318a6282f146100b457806327506f53146100c95780632e7700f0146100de575b600080fd5b6100a160015481565b6040519081526020015b60405180910390f35b6100c76100c236600461133b565b610185565b005b6100d16108c1565b6040516100ab91906113bb565b6000546100a1565b6100c76100f436600461152f565b610a7c565b61010c61010736600461165b565b610c87565b604080516001600160a01b039687168152959094166020860152928401919091526060830152608082015260a0016100ab565b61015261014d36600461165b565b610cd4565b6040516100ab9b9a99989796959493929190611674565b6100c761017736600461173e565b6110f3565b6100a160035481565b60008111801561019757506001548111155b6101a057600080fd5b600380549060006101b0836117d2565b90915550506000818152600260208181526040808420815161016081018352815460ff16151581526001820154938101939093529283018054929392918401916101f9906117ed565b80601f0160208091040260200160405190810160405280929190818152602001828054610225906117ed565b80156102725780601f1061024757610100808354040283529160200191610272565b820191906000526020600020905b81548152906001019060200180831161025557829003601f168201915b5050505050815260200160038201805461028b906117ed565b80601f01602080910402602001604051908101604052809291908181526020018280546102b7906117ed565b80156103045780601f106102d957610100808354040283529160200191610304565b820191906000526020600020905b8154815290600101906020018083116102e757829003601f168201915b5050505050815260200160048201805461031d906117ed565b80601f0160208091040260200160405190810160405280929190818152602001828054610349906117ed565b80156103965780601f1061036b57610100808354040283529160200191610396565b820191906000526020600020905b81548152906001019060200180831161037957829003601f168201915b505050505081526020016005820180546103af906117ed565b80601f01602080910402602001604051908101604052809291908181526020018280546103db906117ed565b80156104285780601f106103fd57610100808354040283529160200191610428565b820191906000526020600020905b81548152906001019060200180831161040b57829003601f168201915b50505091835250506006820154602082015260078201546001600160a01b03166040820152600882018054606090920191610462906117ed565b80601f016020809104026020016040519081016040528092919081815260200182805461048e906117ed565b80156104db5780601f106104b0576101008083540402835291602001916104db565b820191906000526020600020905b8154815290600101906020018083116104be57829003601f168201915b505050505081526020016009820180546104f4906117ed565b80601f0160208091040260200160405190810160405280929190818152602001828054610520906117ed565b801561056d5780601f106105425761010080835404028352916020019161056d565b820191906000526020600020905b81548152906001019060200180831161055057829003601f168201915b50505050508152602001600a82018054610586906117ed565b80601f01602080910402602001604051908101604052809291908181526020018280546105b2906117ed565b80156105ff5780601f106105d4576101008083540402835291602001916105ff565b820191906000526020600020905b8154815290600101906020018083116105e257829003601f168201915b5050505050815250509050828160c0015161061a9190611828565b60c08201526000828152600260208181526040928390208451815460ff191690151517815581850151600182015592840151805185949361066093908501920190611286565b506060820151805161067c916003840191602090910190611286565b5060808201518051610698916004840191602090910190611286565b5060a082015180516106b4916005840191602090910190611286565b5060c0820151600682015560e08201516007820180546001600160a01b0319166001600160a01b039092169190911790556101008201518051610701916008840191602090910190611286565b50610120820151805161071e916009840191602090910190611286565b50610140820151805161073b91600a840191602090910190611286565b50506040805160a08082018352338083526001600160a01b0389811660208086018281528688018c815260608089018d8152426080808c01828152600480546001810182556000919091529c517f8a35acfbc15ff81a39ae7d344fd709f28e8600b4aa8c65c6b64bfe7fe36bd19b6005909e029d8e0180546001600160a01b0319908116928d1692909217905596517f8a35acfbc15ff81a39ae7d344fd709f28e8600b4aa8c65c6b64bfe7fe36bd19c8e0180549098169a169990991790955592517f8a35acfbc15ff81a39ae7d344fd709f28e8600b4aa8c65c6b64bfe7fe36bd19d8b0155517f8a35acfbc15ff81a39ae7d344fd709f28e8600b4aa8c65c6b64bfe7fe36bd19e8a015594517f8a35acfbc15ff81a39ae7d344fd709f28e8600b4aa8c65c6b64bfe7fe36bd19f909801979097558751948552908401919091529482018990528101879052928301919091527f0c26edcaeeec6914ac15ceb3f13a522a234f2ecce954c072ecd8aff3b2bf53f79250015b60405180910390a150505050565b60606005805480602002602001604051908101604052809291908181526020016000905b82821015610a735760008481526020908190206040805160c0810182526006860290920180546001600160a01b03908116845260018201541693830193909352600283015490820152600382018054919291606084019190610946906117ed565b80601f0160208091040260200160405190810160405280929190818152602001828054610972906117ed565b80156109bf5780601f10610994576101008083540402835291602001916109bf565b820191906000526020600020905b8154815290600101906020018083116109a257829003601f168201915b50505050508152602001600482015481526020016005820180546109e2906117ed565b80601f0160208091040260200160405190810160405280929190818152602001828054610a0e906117ed565b8015610a5b5780601f10610a3057610100808354040283529160200191610a5b565b820191906000526020600020905b815481529060010190602001808311610a3e57829003601f168201915b505050505081525050815260200190600101906108e5565b50505050905090565b6000885111610a8a57600080fd5b6000865111610a9857600080fd5b33610aa257600080fd5b60018054906000610ab2836117d2565b9091555050604080516101608101825285151581526001805460208084018281528486018e8152606086018e9052608086018d905260a086018c9052600060c087018190523360e088015261010087018b905261012087018a905261014087018990529384526002808452969093208551815460ff19169015151781559051938101939093559051805193949293610b51938501929190910190611286565b5060608201518051610b6d916003840191602090910190611286565b5060808201518051610b89916004840191602090910190611286565b5060a08201518051610ba5916005840191602090910190611286565b5060c0820151600682015560e08201516007820180546001600160a01b0319166001600160a01b039092169190911790556101008201518051610bf2916008840191602090910190611286565b506101208201518051610c0f916009840191602090910190611286565b506101408201518051610c2c91600a840191602090910190611286565b50506001546040517f9494bddf4ff4896bd79c1d0546ee14305475dff9347fa0bbae6361a5bd7f34779250610c759187918c908c908c908c9060009033908d908d908d90611674565b60405180910390a15050505050505050565b60048181548110610c9757600080fd5b6000918252602090912060059091020180546001820154600283015460038401546004909401546001600160a01b03938416955091909216929085565b600260208190526000918252604090912080546001820154928201805460ff909216939291610d02906117ed565b80601f0160208091040260200160405190810160405280929190818152602001828054610d2e906117ed565b8015610d7b5780601f10610d5057610100808354040283529160200191610d7b565b820191906000526020600020905b815481529060010190602001808311610d5e57829003601f168201915b505050505090806003018054610d90906117ed565b80601f0160208091040260200160405190810160405280929190818152602001828054610dbc906117ed565b8015610e095780601f10610dde57610100808354040283529160200191610e09565b820191906000526020600020905b815481529060010190602001808311610dec57829003601f168201915b505050505090806004018054610e1e906117ed565b80601f0160208091040260200160405190810160405280929190818152602001828054610e4a906117ed565b8015610e975780601f10610e6c57610100808354040283529160200191610e97565b820191906000526020600020905b815481529060010190602001808311610e7a57829003601f168201915b505050505090806005018054610eac906117ed565b80601f0160208091040260200160405190810160405280929190818152602001828054610ed8906117ed565b8015610f255780601f10610efa57610100808354040283529160200191610f25565b820191906000526020600020905b815481529060010190602001808311610f0857829003601f168201915b5050505060068301546007840154600885018054949592946001600160a01b03909216935090610f54906117ed565b80601f0160208091040260200160405190810160405280929190818152602001828054610f80906117ed565b8015610fcd5780601f10610fa257610100808354040283529160200191610fcd565b820191906000526020600020905b815481529060010190602001808311610fb057829003601f168201915b505050505090806009018054610fe2906117ed565b80601f016020809104026020016040519081016040528092919081815260200182805461100e906117ed565b801561105b5780601f106110305761010080835404028352916020019161105b565b820191906000526020600020905b81548152906001019060200180831161103e57829003601f168201915b50505050509080600a018054611070906117ed565b80601f016020809104026020016040519081016040528092919081815260200182805461109c906117ed565b80156110e95780601f106110be576101008083540402835291602001916110e9565b820191906000526020600020905b8154815290600101906020018083116110cc57829003601f168201915b505050505090508b565b60016000808282546111059190611828565b90915550506040805160c0810182523381526001600160a01b0386811660208084019182529383018781526060840187815242608086015260a0850187905260058054600181018255600091909152855160069091027f036b6384b5eca791c62761152d0c79bb0604c104a5fb6f4eb0703f3154bb3db0810180549287166001600160a01b031993841617815594517f036b6384b5eca791c62761152d0c79bb0604c104a5fb6f4eb0703f3154bb3db1820180549190971692169190911790945590517f036b6384b5eca791c62761152d0c79bb0604c104a5fb6f4eb0703f3154bb3db284015551805193949193611224937f036b6384b5eca791c62761152d0c79bb0604c104a5fb6f4eb0703f3154bb3db301929190910190611286565b506080820151600482015560a0820151805161124a916005840191602090910190611286565b5050507f416cfa4330a4565f45c2fd2dd4826a83a37443aba2ce6f79477c7355afac35fa3385858542866040516108b396959493929190611840565b828054611292906117ed565b90600052602060002090601f0160209004810192826112b457600085556112fa565b82601f106112cd57805160ff19168380011785556112fa565b828001600101855582156112fa579182015b828111156112fa5782518255916020019190600101906112df565b5061130692915061130a565b5090565b5b80821115611306576000815560010161130b565b80356001600160a01b038116811461133657600080fd5b919050565b60008060006060848603121561135057600080fd5b6113598461131f565b95602085013595506040909401359392505050565b6000815180845260005b8181101561139457602081850181015186830182015201611378565b818111156113a6576000602083870101525b50601f01601f19169290920160200192915050565b60006020808301818452808551808352604092508286019150828160051b87010184880160005b8381101561146e57888303603f19018552815180516001600160a01b039081168552888201511688850152868101518785015260608082015160c082870181905291906114318388018261136e565b92505050608080830151818701525060a0808301519250858203818701525061145a818361136e565b9689019694505050908601906001016113e2565b509098975050505050505050565b634e487b7160e01b600052604160045260246000fd5b600082601f8301126114a357600080fd5b813567ffffffffffffffff808211156114be576114be61147c565b604051601f8301601f19908116603f011681019082821181831017156114e6576114e661147c565b816040528381528660208588010111156114ff57600080fd5b836020870160208301376000602085830101528094505050505092915050565b8035801515811461133657600080fd5b600080600080600080600080610100898b03121561154c57600080fd5b883567ffffffffffffffff8082111561156457600080fd5b6115708c838d01611492565b995060208b013591508082111561158657600080fd5b6115928c838d01611492565b985060408b01359150808211156115a857600080fd5b6115b48c838d01611492565b975060608b01359150808211156115ca57600080fd5b6115d68c838d01611492565b96506115e460808c0161151f565b955060a08b01359150808211156115fa57600080fd5b6116068c838d01611492565b945060c08b013591508082111561161c57600080fd5b6116288c838d01611492565b935060e08b013591508082111561163e57600080fd5b5061164b8b828c01611492565b9150509295985092959890939650565b60006020828403121561166d57600080fd5b5035919050565b8b1515815260006101608c60208401528060408401526116968184018d61136e565b905082810360608401526116aa818c61136e565b905082810360808401526116be818b61136e565b905082810360a08401526116d2818a61136e565b90508760c08401526116ef60e08401886001600160a01b03169052565b828103610100840152611702818761136e565b9050828103610120840152611717818661136e565b905082810361014084015261172c818561136e565b9e9d5050505050505050505050505050565b6000806000806080858703121561175457600080fd5b61175d8561131f565b935060208501359250604085013567ffffffffffffffff8082111561178157600080fd5b61178d88838901611492565b935060608701359150808211156117a357600080fd5b506117b087828801611492565b91505092959194509250565b634e487b7160e01b600052601160045260246000fd5b60006000198214156117e6576117e66117bc565b5060010190565b600181811c9082168061180157607f821691505b6020821081141561182257634e487b7160e01b600052602260045260246000fd5b50919050565b6000821982111561183b5761183b6117bc565b500190565b6001600160a01b038781168252861660208201526040810185905260c0606082018190526000906118739083018661136e565b84608084015282810360a084015261188b818561136e565b999850505050505050505056fea264697066735822122010179fc90f9b930dc4f233e35d802aabb0e4bf4db9dfddc0dd92740efdbf3aae64736f6c634300080b0033",
    "sourcePath": "/Users/limingjun/Desktop/App/smart_contract/contracts/Transactions.sol",
    "compiler": {
        "name": "solc",
        "version": "0.8.11+commit.d7f03943"
    },
    "functionHashes": {
        "addToBlockchain(address,uint256,string,string)": "cc2d7ead",
        "createPost(string,string,string,string,bool,string,string,string)": "306d82f2",
        "getAllTransactions()": "27506f53",
        "getTransactionCount()": "2e7700f0",
        "post(uint256)": "caa5863c",
        "postCount()": "17906c2e",
        "tipPostRecord(address,uint256,uint256)": "18a6282f",
        "tipTx(uint256)": "88ca6e8f",
        "tipsCount()": "da054b25"
    },
    "gasEstimates": {
        "creation": {
            "codeDepositCost": "1270000",
            "executionCost": "11334",
            "totalCost": "1281334"
        },
        "external": {
            "addToBlockchain(address,uint256,string,string)": "infinite",
            "createPost(string,string,string,string,bool,string,string,string)": "infinite",
            "getAllTransactions()": "infinite",
            "getTransactionCount()": "2348",
            "post(uint256)": "infinite",
            "postCount()": "2285",
            "tipPostRecord(address,uint256,uint256)": "infinite",
            "tipTx(uint256)": "13200",
            "tipsCount()": "2372"
        }
    }
}