{
  "_format": "hh-sol-artifact-1",
  "contractName": "Transactions",
  "sourceName": "contracts/Transactions.sol",
  "abi": [
    {
      "anonymous": false,
      "inputs": [
        {
          "indexed": false,
          "internalType": "bool",
          "name": "isImage",
          "type": "bool"
        },
        {
          "indexed": false,
          "internalType": "uint256",
          "name": "id",
          "type": "uint256"
        },
        {
          "indexed": false,
          "internalType": "string",
          "name": "hash",
          "type": "string"
        },
        {
          "indexed": false,
          "internalType": "string",
          "name": "title",
          "type": "string"
        },
        {
          "indexed": false,
          "internalType": "string",
          "name": "description",
          "type": "string"
        },
        {
          "indexed": false,
          "internalType": "string",
          "name": "category",
          "type": "string"
        },
        {
          "indexed": false,
          "internalType": "uint256",
          "name": "tipAmount",
          "type": "uint256"
        },
        {
          "indexed": false,
          "internalType": "address payable",
          "name": "author",
          "type": "address"
        },
        {
          "indexed": false,
          "internalType": "string",
          "name": "authorGmailName",
          "type": "string"
        },
        {
          "indexed": false,
          "internalType": "string",
          "name": "authorEmail",
          "type": "string"
        },
        {
          "indexed": false,
          "internalType": "string",
          "name": "authorPic",
          "type": "string"
        }
      ],
      "name": "PostCreated",
      "type": "event"
    },
    {
      "anonymous": false,
      "inputs": [
        {
          "indexed": false,
          "internalType": "bool",
          "name": "subscribe",
          "type": "bool"
        },
        {
          "indexed": false,
          "internalType": "address",
          "name": "author",
          "type": "address"
        },
        {
          "indexed": false,
          "internalType": "address",
          "name": "subscriber",
          "type": "address"
        },
        {
          "indexed": false,
          "internalType": "uint256",
          "name": "timestamp",
          "type": "uint256"
        }
      ],
      "name": "Subscribes",
      "type": "event"
    },
    {
      "anonymous": false,
      "inputs": [
        {
          "indexed": false,
          "internalType": "address",
          "name": "tipper",
          "type": "address"
        },
        {
          "indexed": false,
          "internalType": "address",
          "name": "author",
          "type": "address"
        },
        {
          "indexed": false,
          "internalType": "uint256",
          "name": "amount",
          "type": "uint256"
        },
        {
          "indexed": false,
          "internalType": "uint256",
          "name": "postId",
          "type": "uint256"
        },
        {
          "indexed": false,
          "internalType": "uint256",
          "name": "timestamp",
          "type": "uint256"
        }
      ],
      "name": "Tips",
      "type": "event"
    },
    {
      "anonymous": false,
      "inputs": [
        {
          "indexed": false,
          "internalType": "address",
          "name": "from",
          "type": "address"
        },
        {
          "indexed": false,
          "internalType": "address",
          "name": "receiver",
          "type": "address"
        },
        {
          "indexed": false,
          "internalType": "uint256",
          "name": "amount",
          "type": "uint256"
        },
        {
          "indexed": false,
          "internalType": "string",
          "name": "message",
          "type": "string"
        },
        {
          "indexed": false,
          "internalType": "uint256",
          "name": "timestamp",
          "type": "uint256"
        },
        {
          "indexed": false,
          "internalType": "string",
          "name": "keyword",
          "type": "string"
        }
      ],
      "name": "Transfer",
      "type": "event"
    },
    {
      "anonymous": false,
      "inputs": [
        {
          "indexed": false,
          "internalType": "address[]",
          "name": "followers",
          "type": "address[]"
        },
        {
          "indexed": false,
          "internalType": "address[]",
          "name": "subscribes",
          "type": "address[]"
        },
        {
          "indexed": false,
          "internalType": "bool",
          "name": "isUsed",
          "type": "bool"
        }
      ],
      "name": "UserCreated",
      "type": "event"
    },
    {
      "inputs": [
        {
          "internalType": "address",
          "name": "_addr",
          "type": "address"
        }
      ],
      "name": "AddUser",
      "outputs": [],
      "stateMutability": "nonpayable",
      "type": "function"
    },
    {
      "inputs": [
        {
          "internalType": "address",
          "name": "author",
          "type": "address"
        },
        {
          "internalType": "address",
          "name": "subscriber",
          "type": "address"
        }
      ],
      "name": "Subscribe",
      "outputs": [],
      "stateMutability": "nonpayable",
      "type": "function"
    },
    {
      "inputs": [
        {
          "internalType": "address",
          "name": "author",
          "type": "address"
        },
        {
          "internalType": "address",
          "name": "subscriber",
          "type": "address"
        }
      ],
      "name": "Unsubscribe",
      "outputs": [],
      "stateMutability": "nonpayable",
      "type": "function"
    },
    {
      "inputs": [
        {
          "internalType": "address payable",
          "name": "receiver",
          "type": "address"
        },
        {
          "internalType": "uint256",
          "name": "amount",
          "type": "uint256"
        },
        {
          "internalType": "string",
          "name": "message",
          "type": "string"
        },
        {
          "internalType": "string",
          "name": "keyword",
          "type": "string"
        }
      ],
      "name": "addToBlockchain",
      "outputs": [],
      "stateMutability": "nonpayable",
      "type": "function"
    },
    {
      "inputs": [
        {
          "internalType": "string",
          "name": "_postHash",
          "type": "string"
        },
        {
          "internalType": "string",
          "name": "_title",
          "type": "string"
        },
        {
          "internalType": "string",
          "name": "_description",
          "type": "string"
        },
        {
          "internalType": "string",
          "name": "_category",
          "type": "string"
        },
        {
          "internalType": "bool",
          "name": "isImage",
          "type": "bool"
        },
        {
          "internalType": "string",
          "name": "_authorGmailName",
          "type": "string"
        },
        {
          "internalType": "string",
          "name": "_authorEmail",
          "type": "string"
        },
        {
          "internalType": "string",
          "name": "_authorPic",
          "type": "string"
        }
      ],
      "name": "createPost",
      "outputs": [],
      "stateMutability": "nonpayable",
      "type": "function"
    },
    {
      "inputs": [],
      "name": "getAllTransactions",
      "outputs": [
        {
          "components": [
            {
              "internalType": "address",
              "name": "sender",
              "type": "address"
            },
            {
              "internalType": "address",
              "name": "receiver",
              "type": "address"
            },
            {
              "internalType": "uint256",
              "name": "amount",
              "type": "uint256"
            },
            {
              "internalType": "string",
              "name": "message",
              "type": "string"
            },
            {
              "internalType": "uint256",
              "name": "timestamp",
              "type": "uint256"
            },
            {
              "internalType": "string",
              "name": "keyword",
              "type": "string"
            }
          ],
          "internalType": "struct Transactions.TransferStruct[]",
          "name": "",
          "type": "tuple[]"
        }
      ],
      "stateMutability": "view",
      "type": "function"
    },
    {
      "inputs": [
        {
          "internalType": "address",
          "name": "_addr",
          "type": "address"
        }
      ],
      "name": "getFollowers",
      "outputs": [
        {
          "internalType": "address[]",
          "name": "",
          "type": "address[]"
        }
      ],
      "stateMutability": "view",
      "type": "function"
    },
    {
      "inputs": [
        {
          "internalType": "address",
          "name": "_addr",
          "type": "address"
        }
      ],
      "name": "getSubscribes",
      "outputs": [
        {
          "internalType": "address[]",
          "name": "",
          "type": "address[]"
        }
      ],
      "stateMutability": "view",
      "type": "function"
    },
    {
      "inputs": [],
      "name": "getTransactionCount",
      "outputs": [
        {
          "internalType": "uint256",
          "name": "",
          "type": "uint256"
        }
      ],
      "stateMutability": "view",
      "type": "function"
    },
    {
      "inputs": [
        {
          "internalType": "address",
          "name": "_addr",
          "type": "address"
        }
      ],
      "name": "isExistUser",
      "outputs": [
        {
          "internalType": "bool",
          "name": "",
          "type": "bool"
        }
      ],
      "stateMutability": "view",
      "type": "function"
    },
    {
      "inputs": [
        {
          "internalType": "uint256",
          "name": "",
          "type": "uint256"
        }
      ],
      "name": "post",
      "outputs": [
        {
          "internalType": "bool",
          "name": "isImage",
          "type": "bool"
        },
        {
          "internalType": "uint256",
          "name": "id",
          "type": "uint256"
        },
        {
          "internalType": "string",
          "name": "hash",
          "type": "string"
        },
        {
          "internalType": "string",
          "name": "title",
          "type": "string"
        },
        {
          "internalType": "string",
          "name": "description",
          "type": "string"
        },
        {
          "internalType": "string",
          "name": "category",
          "type": "string"
        },
        {
          "internalType": "uint256",
          "name": "tipAmount",
          "type": "uint256"
        },
        {
          "internalType": "address payable",
          "name": "author",
          "type": "address"
        },
        {
          "internalType": "string",
          "name": "authorGmailName",
          "type": "string"
        },
        {
          "internalType": "string",
          "name": "authorEmail",
          "type": "string"
        },
        {
          "internalType": "string",
          "name": "authorPic",
          "type": "string"
        }
      ],
      "stateMutability": "view",
      "type": "function"
    },
    {
      "inputs": [],
      "name": "postCount",
      "outputs": [
        {
          "internalType": "uint256",
          "name": "",
          "type": "uint256"
        }
      ],
      "stateMutability": "view",
      "type": "function"
    },
    {
      "inputs": [
        {
          "internalType": "address payable",
          "name": "author",
          "type": "address"
        },
        {
          "internalType": "uint256",
          "name": "amount",
          "type": "uint256"
        },
        {
          "internalType": "uint256",
          "name": "postId",
          "type": "uint256"
        }
      ],
      "name": "tipPostRecord",
      "outputs": [],
      "stateMutability": "nonpayable",
      "type": "function"
    },
    {
      "inputs": [
        {
          "internalType": "uint256",
          "name": "",
          "type": "uint256"
        }
      ],
      "name": "tipTx",
      "outputs": [
        {
          "internalType": "address",
          "name": "tipper",
          "type": "address"
        },
        {
          "internalType": "address",
          "name": "author",
          "type": "address"
        },
        {
          "internalType": "uint256",
          "name": "amount",
          "type": "uint256"
        },
        {
          "internalType": "uint256",
          "name": "postId",
          "type": "uint256"
        },
        {
          "internalType": "uint256",
          "name": "timestamp",
          "type": "uint256"
        }
      ],
      "stateMutability": "view",
      "type": "function"
    },
    {
      "inputs": [],
      "name": "tipsCount",
      "outputs": [
        {
          "internalType": "uint256",
          "name": "",
          "type": "uint256"
        }
      ],
      "stateMutability": "view",
      "type": "function"
    },
    {
      "inputs": [],
      "name": "userCount",
      "outputs": [
        {
          "internalType": "uint256",
          "name": "",
          "type": "uint256"
        }
      ],
      "stateMutability": "view",
      "type": "function"
    }
  ],
  "bytecode": "0x608060405260006001556000600355600060065534801561001f57600080fd5b506134898061002f6000396000f3fe608060405234801561001057600080fd5b50600436106101005760003560e01c806388ca6e8f11610097578063c2fe202211610066578063c2fe20221461029d578063caa5863c146102cd578063cc2d7ead14610307578063da054b251461032357610100565b806388ca6e8f1461020157806393e8ef53146102355780639d3d878d14610251578063b0433fdf1461026d57610100565b80632e7700f0116100d35780632e7700f01461017b578063306d82f2146101995780635ffe3cc8146101b55780637810f6bf146101d157610100565b806307973ccf1461010557806317906c2e1461012357806318a6282f1461014157806327506f531461015d575b600080fd5b61010d610341565b60405161011a9190613055565b60405180910390f35b61012b610347565b6040516101389190613055565b60405180910390f35b61015b60048036038101906101569190612818565b61034d565b005b610165610b10565b6040516101729190612e1b565b60405180910390f35b610183610d53565b6040516101909190613055565b60405180910390f35b6101b360048036038101906101ae91906128a3565b610d5c565b005b6101cf60048036038101906101ca9190612867565b610fea565b005b6101eb60048036038101906101e6919061275c565b6111e6565b6040516101f89190612e3d565b60405180910390f35b61021b600480360381019061021691906129fd565b61123f565b60405161022c959493929190612d61565b60405180910390f35b61024f600480360381019061024a919061275c565b6112c5565b005b61026b60048036038101906102669190612867565b6115cc565b005b6102876004803603810190610282919061275c565b611d58565b6040516102949190612db4565b60405180910390f35b6102b760048036038101906102b2919061275c565b611e62565b6040516102c49190612db4565b60405180910390f35b6102e760048036038101906102e291906129fd565b611f6c565b6040516102fe9b9a99989796959493929190612f79565b60405180910390f35b610321600480360381019061031c9190612785565b6123ab565b005b61032b61256d565b6040516103389190613055565b60405180910390f35b60065481565b60015481565b60008111801561035f57506001548111155b61036857600080fd5b6003600081548092919061037b90613310565b9190505550600060026000838152602001908152602001600020604051806101600160405290816000820160009054906101000a900460ff16151515158152602001600182015481526020016002820180546103d6906132de565b80601f0160208091040260200160405190810160405280929190818152602001828054610402906132de565b801561044f5780601f106104245761010080835404028352916020019161044f565b820191906000526020600020905b81548152906001019060200180831161043257829003601f168201915b50505050508152602001600382018054610468906132de565b80601f0160208091040260200160405190810160405280929190818152602001828054610494906132de565b80156104e15780601f106104b6576101008083540402835291602001916104e1565b820191906000526020600020905b8154815290600101906020018083116104c457829003601f168201915b505050505081526020016004820180546104fa906132de565b80601f0160208091040260200160405190810160405280929190818152602001828054610526906132de565b80156105735780601f1061054857610100808354040283529160200191610573565b820191906000526020600020905b81548152906001019060200180831161055657829003601f168201915b5050505050815260200160058201805461058c906132de565b80601f01602080910402602001604051908101604052809291908181526020018280546105b8906132de565b80156106055780601f106105da57610100808354040283529160200191610605565b820191906000526020600020905b8154815290600101906020018083116105e857829003601f168201915b50505050508152602001600682015481526020016007820160009054906101000a900473ffffffffffffffffffffffffffffffffffffffff1673ffffffffffffffffffffffffffffffffffffffff1673ffffffffffffffffffffffffffffffffffffffff16815260200160088201805461067e906132de565b80601f01602080910402602001604051908101604052809291908181526020018280546106aa906132de565b80156106f75780601f106106cc576101008083540402835291602001916106f7565b820191906000526020600020905b8154815290600101906020018083116106da57829003601f168201915b50505050508152602001600982018054610710906132de565b80601f016020809104026020016040519081016040528092919081815260200182805461073c906132de565b80156107895780601f1061075e57610100808354040283529160200191610789565b820191906000526020600020905b81548152906001019060200180831161076c57829003601f168201915b50505050508152602001600a820180546107a2906132de565b80601f01602080910402602001604051908101604052809291908181526020018280546107ce906132de565b801561081b5780601f106107f05761010080835404028352916020019161081b565b820191906000526020600020905b8154815290600101906020018083116107fe57829003601f168201915b5050505050815250509050828160c001516108369190613170565b8160c0018181525050806002600084815260200190815260200160002060008201518160000160006101000a81548160ff021916908315150217905550602082015181600101556040820151816002019080519060200190610899929190612573565b5060608201518160030190805190602001906108b6929190612573565b5060808201518160040190805190602001906108d3929190612573565b5060a08201518160050190805190602001906108f0929190612573565b5060c0820151816006015560e08201518160070160006101000a81548173ffffffffffffffffffffffffffffffffffffffff021916908373ffffffffffffffffffffffffffffffffffffffff16021790555061010082015181600801908051906020019061095f929190612573565b5061012082015181600901908051906020019061097d929190612573565b5061014082015181600a01908051906020019061099b929190612573565b5090505060046040518060a001604052803373ffffffffffffffffffffffffffffffffffffffff1681526020018673ffffffffffffffffffffffffffffffffffffffff16815260200185815260200184815260200142815250908060018154018082558091505060019003906000526020600020906005020160009091909190915060008201518160000160006101000a81548173ffffffffffffffffffffffffffffffffffffffff021916908373ffffffffffffffffffffffffffffffffffffffff16021790555060208201518160010160006101000a81548173ffffffffffffffffffffffffffffffffffffffff021916908373ffffffffffffffffffffffffffffffffffffffff16021790555060408201518160020155606082015181600301556080820151816004015550507f0c26edcaeeec6914ac15ceb3f13a522a234f2ecce954c072ecd8aff3b2bf53f73385858542604051610b02959493929190612d0e565b60405180910390a150505050565b60606007805480602002602001604051908101604052809291908181526020016000905b82821015610d4a57838290600052602060002090600602016040518060c00160405290816000820160009054906101000a900473ffffffffffffffffffffffffffffffffffffffff1673ffffffffffffffffffffffffffffffffffffffff1673ffffffffffffffffffffffffffffffffffffffff1681526020016001820160009054906101000a900473ffffffffffffffffffffffffffffffffffffffff1673ffffffffffffffffffffffffffffffffffffffff1673ffffffffffffffffffffffffffffffffffffffff16815260200160028201548152602001600382018054610c1d906132de565b80601f0160208091040260200160405190810160405280929190818152602001828054610c49906132de565b8015610c965780601f10610c6b57610100808354040283529160200191610c96565b820191906000526020600020905b815481529060010190602001808311610c7957829003601f168201915b5050505050815260200160048201548152602001600582018054610cb9906132de565b80601f0160208091040260200160405190810160405280929190818152602001828054610ce5906132de565b8015610d325780601f10610d0757610100808354040283529160200191610d32565b820191906000526020600020905b815481529060010190602001808311610d1557829003601f168201915b50505050508152505081526020019060010190610b34565b50505050905090565b60008054905090565b6000885111610d6a57600080fd5b6000865111610d7857600080fd5b600073ffffffffffffffffffffffffffffffffffffffff163373ffffffffffffffffffffffffffffffffffffffff161415610db257600080fd5b60016000815480929190610dc590613310565b919050555060405180610160016040528085151581526020016001548152602001898152602001888152602001878152602001868152602001600081526020013373ffffffffffffffffffffffffffffffffffffffff1681526020018481526020018381526020018281525060026000600154815260200190815260200160002060008201518160000160006101000a81548160ff021916908315150217905550602082015181600101556040820151816002019080519060200190610e8c929190612573565b506060820151816003019080519060200190610ea9929190612573565b506080820151816004019080519060200190610ec6929190612573565b5060a0820151816005019080519060200190610ee3929190612573565b5060c0820151816006015560e08201518160070160006101000a81548173ffffffffffffffffffffffffffffffffffffffff021916908373ffffffffffffffffffffffffffffffffffffffff160217905550610100820151816008019080519060200190610f52929190612573565b50610120820151816009019080519060200190610f70929190612573565b5061014082015181600a019080519060200190610f8e929190612573565b509050507f9494bddf4ff4896bd79c1d0546ee14305475dff9347fa0bbae6361a5bd7f3477846001548a8a8a8a6000338b8b8b604051610fd89b9a99989796959493929190612e9d565b60405180910390a15050505050505050565b600073ffffffffffffffffffffffffffffffffffffffff168273ffffffffffffffffffffffffffffffffffffffff16141561102457600080fd5b600073ffffffffffffffffffffffffffffffffffffffff168173ffffffffffffffffffffffffffffffffffffffff16141561105e57600080fd5b600560008373ffffffffffffffffffffffffffffffffffffffff1673ffffffffffffffffffffffffffffffffffffffff168152602001908152602001600020600001819080600181540180825580915050600190039060005260206000200160009091909190916101000a81548173ffffffffffffffffffffffffffffffffffffffff021916908373ffffffffffffffffffffffffffffffffffffffff160217905550600560008273ffffffffffffffffffffffffffffffffffffffff1673ffffffffffffffffffffffffffffffffffffffff168152602001908152602001600020600101829080600181540180825580915050600190039060005260206000200160009091909190916101000a81548173ffffffffffffffffffffffffffffffffffffffff021916908373ffffffffffffffffffffffffffffffffffffffff1602179055507fec017fcfb0c8c067524434550c65ab6ee3d3baa7da1db9c8bdff8da7aff8588e60018383426040516111da9493929190612e58565b60405180910390a15050565b6000600560008373ffffffffffffffffffffffffffffffffffffffff1673ffffffffffffffffffffffffffffffffffffffff16815260200190815260200160002060020160009054906101000a900460ff169050919050565b6004818154811061124f57600080fd5b90600052602060002090600502016000915090508060000160009054906101000a900473ffffffffffffffffffffffffffffffffffffffff16908060010160009054906101000a900473ffffffffffffffffffffffffffffffffffffffff16908060020154908060030154908060040154905085565b600073ffffffffffffffffffffffffffffffffffffffff168173ffffffffffffffffffffffffffffffffffffffff1614156112ff57600080fd5b6006600081548092919061131290613310565b91905055506040518060600160405280600067ffffffffffffffff811115611363577f4e487b7100000000000000000000000000000000000000000000000000000000600052604160045260246000fd5b6040519080825280602002602001820160405280156113915781602001602082028036833780820191505090505b508152602001600067ffffffffffffffff8111156113d8577f4e487b7100000000000000000000000000000000000000000000000000000000600052604160045260246000fd5b6040519080825280602002602001820160405280156114065781602001602082028036833780820191505090505b50815260200160011515815250600560008373ffffffffffffffffffffffffffffffffffffffff1673ffffffffffffffffffffffffffffffffffffffff168152602001908152602001600020600082015181600001908051906020019061146e9291906125f9565b50602082015181600101908051906020019061148b9291906125f9565b5060408201518160020160006101000a81548160ff0219169083151502179055509050507f5b5ede2443093e9f794ece5780040c985e3c45686ae75db7c8a39bc2859ffaad600067ffffffffffffffff811115611511577f4e487b7100000000000000000000000000000000000000000000000000000000600052604160045260246000fd5b60405190808252806020026020018201604052801561153f5781602001602082028036833780820191505090505b50600067ffffffffffffffff811115611581577f4e487b7100000000000000000000000000000000000000000000000000000000600052604160045260246000fd5b6040519080825280602002602001820160405280156115af5781602001602082028036833780820191505090505b5060016040516115c193929190612dd6565b60405180910390a150565b600073ffffffffffffffffffffffffffffffffffffffff168273ffffffffffffffffffffffffffffffffffffffff16141561160657600080fd5b600073ffffffffffffffffffffffffffffffffffffffff168173ffffffffffffffffffffffffffffffffffffffff16141561164057600080fd5b600080600560008573ffffffffffffffffffffffffffffffffffffffff1673ffffffffffffffffffffffffffffffffffffffff16815260200190815260200160002060000180549050905060005b81811015611789578373ffffffffffffffffffffffffffffffffffffffff16600560008773ffffffffffffffffffffffffffffffffffffffff1673ffffffffffffffffffffffffffffffffffffffff1681526020019081526020016000206000018281548110611727577f4e487b7100000000000000000000000000000000000000000000000000000000600052603260045260246000fd5b9060005260206000200160009054906101000a900473ffffffffffffffffffffffffffffffffffffffff1673ffffffffffffffffffffffffffffffffffffffff16141561177657809250611789565b808061178190613310565b91505061168e565b50600560008573ffffffffffffffffffffffffffffffffffffffff1673ffffffffffffffffffffffffffffffffffffffff1681526020019081526020016000206000016001826117d991906131c6565b81548110611810577f4e487b7100000000000000000000000000000000000000000000000000000000600052603260045260246000fd5b9060005260206000200160009054906101000a900473ffffffffffffffffffffffffffffffffffffffff16600560008673ffffffffffffffffffffffffffffffffffffffff1673ffffffffffffffffffffffffffffffffffffffff16815260200190815260200160002060000183815481106118b5577f4e487b7100000000000000000000000000000000000000000000000000000000600052603260045260246000fd5b9060005260206000200160006101000a81548173ffffffffffffffffffffffffffffffffffffffff021916908373ffffffffffffffffffffffffffffffffffffffff160217905550600560008573ffffffffffffffffffffffffffffffffffffffff1673ffffffffffffffffffffffffffffffffffffffff168152602001908152602001600020600001805480611975577f4e487b7100000000000000000000000000000000000000000000000000000000600052603160045260246000fd5b6001900381819060005260206000200160006101000a81549073ffffffffffffffffffffffffffffffffffffffff021916905590556000600560008573ffffffffffffffffffffffffffffffffffffffff1673ffffffffffffffffffffffffffffffffffffffff16815260200190815260200160002060010180549050905060005b81811015611af2578573ffffffffffffffffffffffffffffffffffffffff16600560008773ffffffffffffffffffffffffffffffffffffffff1673ffffffffffffffffffffffffffffffffffffffff1681526020019081526020016000206001018281548110611a90577f4e487b7100000000000000000000000000000000000000000000000000000000600052603260045260246000fd5b9060005260206000200160009054906101000a900473ffffffffffffffffffffffffffffffffffffffff1673ffffffffffffffffffffffffffffffffffffffff161415611adf57809350611af2565b8080611aea90613310565b9150506119f7565b50600560008573ffffffffffffffffffffffffffffffffffffffff1673ffffffffffffffffffffffffffffffffffffffff168152602001908152602001600020600101600182611b4291906131c6565b81548110611b79577f4e487b7100000000000000000000000000000000000000000000000000000000600052603260045260246000fd5b9060005260206000200160009054906101000a900473ffffffffffffffffffffffffffffffffffffffff16600560008673ffffffffffffffffffffffffffffffffffffffff1673ffffffffffffffffffffffffffffffffffffffff1681526020019081526020016000206001018481548110611c1e577f4e487b7100000000000000000000000000000000000000000000000000000000600052603260045260246000fd5b9060005260206000200160006101000a81548173ffffffffffffffffffffffffffffffffffffffff021916908373ffffffffffffffffffffffffffffffffffffffff160217905550600560008573ffffffffffffffffffffffffffffffffffffffff1673ffffffffffffffffffffffffffffffffffffffff168152602001908152602001600020600101805480611cde577f4e487b7100000000000000000000000000000000000000000000000000000000600052603160045260246000fd5b6001900381819060005260206000200160006101000a81549073ffffffffffffffffffffffffffffffffffffffff021916905590557fec017fcfb0c8c067524434550c65ab6ee3d3baa7da1db9c8bdff8da7aff8588e6000868642604051611d499493929190612e58565b60405180910390a15050505050565b6060600073ffffffffffffffffffffffffffffffffffffffff168273ffffffffffffffffffffffffffffffffffffffff161415611d9457600080fd5b600560008373ffffffffffffffffffffffffffffffffffffffff1673ffffffffffffffffffffffffffffffffffffffff168152602001908152602001600020600101805480602002602001604051908101604052809291908181526020018280548015611e5657602002820191906000526020600020905b8160009054906101000a900473ffffffffffffffffffffffffffffffffffffffff1673ffffffffffffffffffffffffffffffffffffffff1681526020019060010190808311611e0c575b50505050509050919050565b6060600073ffffffffffffffffffffffffffffffffffffffff168273ffffffffffffffffffffffffffffffffffffffff161415611e9e57600080fd5b600560008373ffffffffffffffffffffffffffffffffffffffff1673ffffffffffffffffffffffffffffffffffffffff168152602001908152602001600020600001805480602002602001604051908101604052809291908181526020018280548015611f6057602002820191906000526020600020905b8160009054906101000a900473ffffffffffffffffffffffffffffffffffffffff1673ffffffffffffffffffffffffffffffffffffffff1681526020019060010190808311611f16575b50505050509050919050565b60026020528060005260406000206000915090508060000160009054906101000a900460ff1690806001015490806002018054611fa8906132de565b80601f0160208091040260200160405190810160405280929190818152602001828054611fd4906132de565b80156120215780601f10611ff657610100808354040283529160200191612021565b820191906000526020600020905b81548152906001019060200180831161200457829003601f168201915b505050505090806003018054612036906132de565b80601f0160208091040260200160405190810160405280929190818152602001828054612062906132de565b80156120af5780601f10612084576101008083540402835291602001916120af565b820191906000526020600020905b81548152906001019060200180831161209257829003601f168201915b5050505050908060040180546120c4906132de565b80601f01602080910402602001604051908101604052809291908181526020018280546120f0906132de565b801561213d5780601f106121125761010080835404028352916020019161213d565b820191906000526020600020905b81548152906001019060200180831161212057829003601f168201915b505050505090806005018054612152906132de565b80601f016020809104026020016040519081016040528092919081815260200182805461217e906132de565b80156121cb5780601f106121a0576101008083540402835291602001916121cb565b820191906000526020600020905b8154815290600101906020018083116121ae57829003601f168201915b5050505050908060060154908060070160009054906101000a900473ffffffffffffffffffffffffffffffffffffffff169080600801805461220c906132de565b80601f0160208091040260200160405190810160405280929190818152602001828054612238906132de565b80156122855780601f1061225a57610100808354040283529160200191612285565b820191906000526020600020905b81548152906001019060200180831161226857829003601f168201915b50505050509080600901805461229a906132de565b80601f01602080910402602001604051908101604052809291908181526020018280546122c6906132de565b80156123135780601f106122e857610100808354040283529160200191612313565b820191906000526020600020905b8154815290600101906020018083116122f657829003601f168201915b50505050509080600a018054612328906132de565b80601f0160208091040260200160405190810160405280929190818152602001828054612354906132de565b80156123a15780601f10612376576101008083540402835291602001916123a1565b820191906000526020600020905b81548152906001019060200180831161238457829003601f168201915b505050505090508b565b60016000808282546123bd9190613170565b9250508190555060076040518060c001604052803373ffffffffffffffffffffffffffffffffffffffff1681526020018673ffffffffffffffffffffffffffffffffffffffff16815260200185815260200184815260200142815260200183815250908060018154018082558091505060019003906000526020600020906006020160009091909190915060008201518160000160006101000a81548173ffffffffffffffffffffffffffffffffffffffff021916908373ffffffffffffffffffffffffffffffffffffffff16021790555060208201518160010160006101000a81548173ffffffffffffffffffffffffffffffffffffffff021916908373ffffffffffffffffffffffffffffffffffffffff1602179055506040820151816002015560608201518160030190805190602001906124fc929190612573565b506080820151816004015560a0820151816005019080519060200190612523929190612573565b5050507f416cfa4330a4565f45c2fd2dd4826a83a37443aba2ce6f79477c7355afac35fa33858585428660405161255f96959493929190612c9f565b60405180910390a150505050565b60035481565b82805461257f906132de565b90600052602060002090601f0160209004810192826125a157600085556125e8565b82601f106125ba57805160ff19168380011785556125e8565b828001600101855582156125e8579182015b828111156125e75782518255916020019190600101906125cc565b5b5090506125f59190612683565b5090565b828054828255906000526020600020908101928215612672579160200282015b828111156126715782518260006101000a81548173ffffffffffffffffffffffffffffffffffffffff021916908373ffffffffffffffffffffffffffffffffffffffff16021790555091602001919060010190612619565b5b50905061267f9190612683565b5090565b5b8082111561269c576000816000905550600101612684565b5090565b60006126b36126ae846130a1565b613070565b9050828152602081018484840111156126cb57600080fd5b6126d684828561329c565b509392505050565b6000813590506126ed816133f7565b92915050565b6000813590506127028161340e565b92915050565b60008135905061271781613425565b92915050565b600082601f83011261272e57600080fd5b813561273e8482602086016126a0565b91505092915050565b6000813590506127568161343c565b92915050565b60006020828403121561276e57600080fd5b600061277c848285016126de565b91505092915050565b6000806000806080858703121561279b57600080fd5b60006127a9878288016126f3565b94505060206127ba87828801612747565b935050604085013567ffffffffffffffff8111156127d757600080fd5b6127e38782880161271d565b925050606085013567ffffffffffffffff81111561280057600080fd5b61280c8782880161271d565b91505092959194509250565b60008060006060848603121561282d57600080fd5b600061283b868287016126f3565b935050602061284c86828701612747565b925050604061285d86828701612747565b9150509250925092565b6000806040838503121561287a57600080fd5b6000612888858286016126de565b9250506020612899858286016126de565b9150509250929050565b600080600080600080600080610100898b0312156128c057600080fd5b600089013567ffffffffffffffff8111156128da57600080fd5b6128e68b828c0161271d565b985050602089013567ffffffffffffffff81111561290357600080fd5b61290f8b828c0161271d565b975050604089013567ffffffffffffffff81111561292c57600080fd5b6129388b828c0161271d565b965050606089013567ffffffffffffffff81111561295557600080fd5b6129618b828c0161271d565b95505060806129728b828c01612708565b94505060a089013567ffffffffffffffff81111561298f57600080fd5b61299b8b828c0161271d565b93505060c089013567ffffffffffffffff8111156129b857600080fd5b6129c48b828c0161271d565b92505060e089013567ffffffffffffffff8111156129e157600080fd5b6129ed8b828c0161271d565b9150509295985092959890939650565b600060208284031215612a0f57600080fd5b6000612a1d84828501612747565b91505092915050565b6000612a328383612a70565b60208301905092915050565b6000612a4a8383612bf1565b905092915050565b612a5b81613254565b82525050565b612a6a8161320c565b82525050565b612a79816131fa565b82525050565b612a88816131fa565b82525050565b6000612a99826130f1565b612aa3818561312c565b9350612aae836130d1565b8060005b83811015612adf578151612ac68882612a26565b9750612ad183613112565b925050600181019050612ab2565b5085935050505092915050565b6000612af7826130fc565b612b01818561313d565b935083602082028501612b13856130e1565b8060005b85811015612b4f5784840389528151612b308582612a3e565b9450612b3b8361311f565b925060208a01995050600181019050612b17565b50829750879550505050505092915050565b612b6a8161321e565b82525050565b612b7981613266565b82525050565b6000612b8a82613107565b612b94818561314e565b9350612ba48185602086016132ab565b612bad816133e6565b840191505092915050565b6000612bc382613107565b612bcd818561315f565b9350612bdd8185602086016132ab565b612be6816133e6565b840191505092915050565b600060c083016000830151612c096000860182612a70565b506020830151612c1c6020860182612a70565b506040830151612c2f6040860182612c81565b5060608301518482036060860152612c478282612b7f565b9150506080830151612c5c6080860182612c81565b5060a083015184820360a0860152612c748282612b7f565b9150508091505092915050565b612c8a8161324a565b82525050565b612c998161324a565b82525050565b600060c082019050612cb46000830189612a7f565b612cc16020830188612a52565b612cce6040830187612c90565b8181036060830152612ce08186612bb8565b9050612cef6080830185612c90565b81810360a0830152612d018184612bb8565b9050979650505050505050565b600060a082019050612d236000830188612a7f565b612d306020830187612a52565b612d3d6040830186612c90565b612d4a6060830185612c90565b612d576080830184612c90565b9695505050505050565b600060a082019050612d766000830188612a7f565b612d836020830187612a7f565b612d906040830186612c90565b612d9d6060830185612c90565b612daa6080830184612c90565b9695505050505050565b60006020820190508181036000830152612dce8184612a8e565b905092915050565b60006060820190508181036000830152612df08186612a8e565b90508181036020830152612e048185612a8e565b9050612e136040830184612b61565b949350505050565b60006020820190508181036000830152612e358184612aec565b905092915050565b6000602082019050612e526000830184612b61565b92915050565b6000608082019050612e6d6000830187612b61565b612e7a6020830186612a7f565b612e876040830185612a7f565b612e946060830184612c90565b95945050505050565b600061016082019050612eb3600083018e612b61565b612ec0602083018d612c90565b8181036040830152612ed2818c612bb8565b90508181036060830152612ee6818b612bb8565b90508181036080830152612efa818a612bb8565b905081810360a0830152612f0e8189612bb8565b9050612f1d60c0830188612b70565b612f2a60e0830187612a61565b818103610100830152612f3d8186612bb8565b9050818103610120830152612f528185612bb8565b9050818103610140830152612f678184612bb8565b90509c9b505050505050505050505050565b600061016082019050612f8f600083018e612b61565b612f9c602083018d612c90565b8181036040830152612fae818c612bb8565b90508181036060830152612fc2818b612bb8565b90508181036080830152612fd6818a612bb8565b905081810360a0830152612fea8189612bb8565b9050612ff960c0830188612c90565b61300660e0830187612a61565b8181036101008301526130198186612bb8565b905081810361012083015261302e8185612bb8565b90508181036101408301526130438184612bb8565b90509c9b505050505050505050505050565b600060208201905061306a6000830184612c90565b92915050565b6000604051905081810181811067ffffffffffffffff82111715613097576130966133b7565b5b8060405250919050565b600067ffffffffffffffff8211156130bc576130bb6133b7565b5b601f19601f8301169050602081019050919050565b6000819050602082019050919050565b6000819050602082019050919050565b600081519050919050565b600081519050919050565b600081519050919050565b6000602082019050919050565b6000602082019050919050565b600082825260208201905092915050565b600082825260208201905092915050565b600082825260208201905092915050565b600082825260208201905092915050565b600061317b8261324a565b91506131868361324a565b9250827fffffffffffffffffffffffffffffffffffffffffffffffffffffffffffffffff038211156131bb576131ba613359565b5b828201905092915050565b60006131d18261324a565b91506131dc8361324a565b9250828210156131ef576131ee613359565b5b828203905092915050565b60006132058261322a565b9050919050565b60006132178261322a565b9050919050565b60008115159050919050565b600073ffffffffffffffffffffffffffffffffffffffff82169050919050565b6000819050919050565b600061325f82613278565b9050919050565b60006132718261324a565b9050919050565b60006132838261328a565b9050919050565b60006132958261322a565b9050919050565b82818337600083830152505050565b60005b838110156132c95780820151818401526020810190506132ae565b838111156132d8576000848401525b50505050565b600060028204905060018216806132f657607f821691505b6020821081141561330a57613309613388565b5b50919050565b600061331b8261324a565b91507fffffffffffffffffffffffffffffffffffffffffffffffffffffffffffffffff82141561334e5761334d613359565b5b600182019050919050565b7f4e487b7100000000000000000000000000000000000000000000000000000000600052601160045260246000fd5b7f4e487b7100000000000000000000000000000000000000000000000000000000600052602260045260246000fd5b7f4e487b7100000000000000000000000000000000000000000000000000000000600052604160045260246000fd5b6000601f19601f8301169050919050565b613400816131fa565b811461340b57600080fd5b50565b6134178161320c565b811461342257600080fd5b50565b61342e8161321e565b811461343957600080fd5b50565b6134458161324a565b811461345057600080fd5b5056fea2646970667358221220680247766e013cc9798db0dfe689a5e08de3e55860310ba6b1e31b31406a2e8064736f6c63430008000033",
  "linkReferences": {},
  "deployedLinkReferences": {}
}