{
  "_format": "hh-sol-artifact-1",
  "contractName": "Transactions",
  "sourceName": "contracts/Transactions.sol",
  "abi": [
    {
      "anonymous": false,
      "inputs": [
        {
          "indexed": false,
          "internalType": "bool",
          "name": "isImage",
          "type": "bool"
        },
        {
          "indexed": false,
          "internalType": "uint256",
          "name": "id",
          "type": "uint256"
        },
        {
          "indexed": false,
          "internalType": "string",
          "name": "hash",
          "type": "string"
        },
        {
          "indexed": false,
          "internalType": "string",
          "name": "title",
          "type": "string"
        },
        {
          "indexed": false,
          "internalType": "string",
          "name": "description",
          "type": "string"
        },
        {
          "indexed": false,
          "internalType": "string",
          "name": "category",
          "type": "string"
        },
        {
          "indexed": false,
          "internalType": "uint256",
          "name": "tipAmount",
          "type": "uint256"
        },
        {
          "indexed": false,
          "internalType": "address payable",
          "name": "author",
          "type": "address"
        },
        {
          "indexed": false,
          "internalType": "string",
          "name": "authorGmailName",
          "type": "string"
        },
        {
          "indexed": false,
          "internalType": "string",
          "name": "authorEmail",
          "type": "string"
        },
        {
          "indexed": false,
          "internalType": "string",
          "name": "authorPic",
          "type": "string"
        }
      ],
      "name": "PostCreated",
      "type": "event"
    },
    {
      "anonymous": false,
      "inputs": [
        {
          "indexed": false,
          "internalType": "address",
          "name": "tipper",
          "type": "address"
        },
        {
          "indexed": false,
          "internalType": "address",
          "name": "author",
          "type": "address"
        },
        {
          "indexed": false,
          "internalType": "uint256",
          "name": "amount",
          "type": "uint256"
        },
        {
          "indexed": false,
          "internalType": "uint256",
          "name": "postId",
          "type": "uint256"
        },
        {
          "indexed": false,
          "internalType": "uint256",
          "name": "timestamp",
          "type": "uint256"
        }
      ],
      "name": "Tips",
      "type": "event"
    },
    {
      "anonymous": false,
      "inputs": [
        {
          "indexed": false,
          "internalType": "address",
          "name": "from",
          "type": "address"
        },
        {
          "indexed": false,
          "internalType": "address",
          "name": "receiver",
          "type": "address"
        },
        {
          "indexed": false,
          "internalType": "uint256",
          "name": "amount",
          "type": "uint256"
        },
        {
          "indexed": false,
          "internalType": "string",
          "name": "message",
          "type": "string"
        },
        {
          "indexed": false,
          "internalType": "uint256",
          "name": "timestamp",
          "type": "uint256"
        },
        {
          "indexed": false,
          "internalType": "string",
          "name": "keyword",
          "type": "string"
        }
      ],
      "name": "Transfer",
      "type": "event"
    },
    {
      "inputs": [
        {
          "internalType": "address payable",
          "name": "receiver",
          "type": "address"
        },
        {
          "internalType": "uint256",
          "name": "amount",
          "type": "uint256"
        },
        {
          "internalType": "string",
          "name": "message",
          "type": "string"
        },
        {
          "internalType": "string",
          "name": "keyword",
          "type": "string"
        }
      ],
      "name": "addToBlockchain",
      "outputs": [],
      "stateMutability": "nonpayable",
      "type": "function"
    },
    {
      "inputs": [
        {
          "internalType": "string",
          "name": "_postHash",
          "type": "string"
        },
        {
          "internalType": "string",
          "name": "_title",
          "type": "string"
        },
        {
          "internalType": "string",
          "name": "_description",
          "type": "string"
        },
        {
          "internalType": "string",
          "name": "_category",
          "type": "string"
        },
        {
          "internalType": "bool",
          "name": "isImage",
          "type": "bool"
        },
        {
          "internalType": "string",
          "name": "_authorGmailName",
          "type": "string"
        },
        {
          "internalType": "string",
          "name": "_authorEmail",
          "type": "string"
        },
        {
          "internalType": "string",
          "name": "_authorPic",
          "type": "string"
        }
      ],
      "name": "createPost",
      "outputs": [],
      "stateMutability": "nonpayable",
      "type": "function"
    },
    {
      "inputs": [],
      "name": "getAllTransactions",
      "outputs": [
        {
          "components": [
            {
              "internalType": "address",
              "name": "sender",
              "type": "address"
            },
            {
              "internalType": "address",
              "name": "receiver",
              "type": "address"
            },
            {
              "internalType": "uint256",
              "name": "amount",
              "type": "uint256"
            },
            {
              "internalType": "string",
              "name": "message",
              "type": "string"
            },
            {
              "internalType": "uint256",
              "name": "timestamp",
              "type": "uint256"
            },
            {
              "internalType": "string",
              "name": "keyword",
              "type": "string"
            }
          ],
          "internalType": "struct Transactions.TransferStruct[]",
          "name": "",
          "type": "tuple[]"
        }
      ],
      "stateMutability": "view",
      "type": "function"
    },
    {
      "inputs": [],
      "name": "getTransactionCount",
      "outputs": [
        {
          "internalType": "uint256",
          "name": "",
          "type": "uint256"
        }
      ],
      "stateMutability": "view",
      "type": "function"
    },
    {
      "inputs": [
        {
          "internalType": "uint256",
          "name": "",
          "type": "uint256"
        }
      ],
      "name": "post",
      "outputs": [
        {
          "internalType": "bool",
          "name": "isImage",
          "type": "bool"
        },
        {
          "internalType": "uint256",
          "name": "id",
          "type": "uint256"
        },
        {
          "internalType": "string",
          "name": "hash",
          "type": "string"
        },
        {
          "internalType": "string",
          "name": "title",
          "type": "string"
        },
        {
          "internalType": "string",
          "name": "description",
          "type": "string"
        },
        {
          "internalType": "string",
          "name": "category",
          "type": "string"
        },
        {
          "internalType": "uint256",
          "name": "tipAmount",
          "type": "uint256"
        },
        {
          "internalType": "address payable",
          "name": "author",
          "type": "address"
        },
        {
          "internalType": "string",
          "name": "authorGmailName",
          "type": "string"
        },
        {
          "internalType": "string",
          "name": "authorEmail",
          "type": "string"
        },
        {
          "internalType": "string",
          "name": "authorPic",
          "type": "string"
        }
      ],
      "stateMutability": "view",
      "type": "function"
    },
    {
      "inputs": [],
      "name": "postCount",
      "outputs": [
        {
          "internalType": "uint256",
          "name": "",
          "type": "uint256"
        }
      ],
      "stateMutability": "view",
      "type": "function"
    },
    {
      "inputs": [
        {
          "internalType": "address payable",
          "name": "author",
          "type": "address"
        },
        {
          "internalType": "uint256",
          "name": "amount",
          "type": "uint256"
        },
        {
          "internalType": "uint256",
          "name": "postId",
          "type": "uint256"
        }
      ],
      "name": "tipPostRecord",
      "outputs": [],
      "stateMutability": "nonpayable",
      "type": "function"
    },
    {
      "inputs": [
        {
          "internalType": "uint256",
          "name": "",
          "type": "uint256"
        }
      ],
      "name": "tipTx",
      "outputs": [
        {
          "internalType": "address",
          "name": "tipper",
          "type": "address"
        },
        {
          "internalType": "address",
          "name": "author",
          "type": "address"
        },
        {
          "internalType": "uint256",
          "name": "amount",
          "type": "uint256"
        },
        {
          "internalType": "uint256",
          "name": "postId",
          "type": "uint256"
        },
        {
          "internalType": "uint256",
          "name": "timestamp",
          "type": "uint256"
        }
      ],
      "stateMutability": "view",
      "type": "function"
    },
    {
      "inputs": [],
      "name": "tipsCount",
      "outputs": [
        {
          "internalType": "uint256",
          "name": "",
          "type": "uint256"
        }
      ],
      "stateMutability": "view",
      "type": "function"
    }
  ],
  "bytecode": "0x60806040526000600155600060035534801561001a57600080fd5b506121538061002a6000396000f3fe608060405234801561001057600080fd5b50600436106100935760003560e01c8063306d82f211610066578063306d82f21461010e57806388ca6e8f1461012a578063caa5863c1461015e578063cc2d7ead14610198578063da054b25146101b457610093565b806317906c2e1461009857806318a6282f146100b657806327506f53146100d25780632e7700f0146100f0575b600080fd5b6100a06101d2565b6040516100ad9190611da3565b60405180910390f35b6100d060048036038101906100cb91906116df565b6101d8565b005b6100da61099b565b6040516100e79190611bc9565b60405180910390f35b6100f8610bde565b6040516101059190611da3565b60405180910390f35b6101286004803603810190610123919061172e565b610be7565b005b610144600480360381019061013f9190611888565b610e75565b604051610155959493929190611b76565b60405180910390f35b61017860048036038101906101739190611888565b610efb565b60405161018f9b9a99989796959493929190611cc7565b60405180910390f35b6101b260048036038101906101ad919061164c565b61133a565b005b6101bc6114fc565b6040516101c99190611da3565b60405180910390f35b60015481565b6000811180156101ea57506001548111155b6101f357600080fd5b6003600081548092919061020690611ff1565b9190505550600060026000838152602001908152602001600020604051806101600160405290816000820160009054906101000a900460ff161515151581526020016001820154815260200160028201805461026190611fbf565b80601f016020809104026020016040519081016040528092919081815260200182805461028d90611fbf565b80156102da5780601f106102af576101008083540402835291602001916102da565b820191906000526020600020905b8154815290600101906020018083116102bd57829003601f168201915b505050505081526020016003820180546102f390611fbf565b80601f016020809104026020016040519081016040528092919081815260200182805461031f90611fbf565b801561036c5780601f106103415761010080835404028352916020019161036c565b820191906000526020600020905b81548152906001019060200180831161034f57829003601f168201915b5050505050815260200160048201805461038590611fbf565b80601f01602080910402602001604051908101604052809291908181526020018280546103b190611fbf565b80156103fe5780601f106103d3576101008083540402835291602001916103fe565b820191906000526020600020905b8154815290600101906020018083116103e157829003601f168201915b5050505050815260200160058201805461041790611fbf565b80601f016020809104026020016040519081016040528092919081815260200182805461044390611fbf565b80156104905780601f1061046557610100808354040283529160200191610490565b820191906000526020600020905b81548152906001019060200180831161047357829003601f168201915b50505050508152602001600682015481526020016007820160009054906101000a900473ffffffffffffffffffffffffffffffffffffffff1673ffffffffffffffffffffffffffffffffffffffff1673ffffffffffffffffffffffffffffffffffffffff16815260200160088201805461050990611fbf565b80601f016020809104026020016040519081016040528092919081815260200182805461053590611fbf565b80156105825780601f1061055757610100808354040283529160200191610582565b820191906000526020600020905b81548152906001019060200180831161056557829003601f168201915b5050505050815260200160098201805461059b90611fbf565b80601f01602080910402602001604051908101604052809291908181526020018280546105c790611fbf565b80156106145780601f106105e957610100808354040283529160200191610614565b820191906000526020600020905b8154815290600101906020018083116105f757829003601f168201915b50505050508152602001600a8201805461062d90611fbf565b80601f016020809104026020016040519081016040528092919081815260200182805461065990611fbf565b80156106a65780601f1061067b576101008083540402835291602001916106a6565b820191906000526020600020905b81548152906001019060200180831161068957829003601f168201915b5050505050815250509050828160c001516106c19190611e85565b8160c0018181525050806002600084815260200190815260200160002060008201518160000160006101000a81548160ff021916908315150217905550602082015181600101556040820151816002019080519060200190610724929190611502565b506060820151816003019080519060200190610741929190611502565b50608082015181600401908051906020019061075e929190611502565b5060a082015181600501908051906020019061077b929190611502565b5060c0820151816006015560e08201518160070160006101000a81548173ffffffffffffffffffffffffffffffffffffffff021916908373ffffffffffffffffffffffffffffffffffffffff1602179055506101008201518160080190805190602001906107ea929190611502565b50610120820151816009019080519060200190610808929190611502565b5061014082015181600a019080519060200190610826929190611502565b5090505060046040518060a001604052803373ffffffffffffffffffffffffffffffffffffffff1681526020018673ffffffffffffffffffffffffffffffffffffffff16815260200185815260200184815260200142815250908060018154018082558091505060019003906000526020600020906005020160009091909190915060008201518160000160006101000a81548173ffffffffffffffffffffffffffffffffffffffff021916908373ffffffffffffffffffffffffffffffffffffffff16021790555060208201518160010160006101000a81548173ffffffffffffffffffffffffffffffffffffffff021916908373ffffffffffffffffffffffffffffffffffffffff16021790555060408201518160020155606082015181600301556080820151816004015550507f0c26edcaeeec6914ac15ceb3f13a522a234f2ecce954c072ecd8aff3b2bf53f7338585854260405161098d959493929190611b23565b60405180910390a150505050565b60606005805480602002602001604051908101604052809291908181526020016000905b82821015610bd557838290600052602060002090600602016040518060c00160405290816000820160009054906101000a900473ffffffffffffffffffffffffffffffffffffffff1673ffffffffffffffffffffffffffffffffffffffff1673ffffffffffffffffffffffffffffffffffffffff1681526020016001820160009054906101000a900473ffffffffffffffffffffffffffffffffffffffff1673ffffffffffffffffffffffffffffffffffffffff1673ffffffffffffffffffffffffffffffffffffffff16815260200160028201548152602001600382018054610aa890611fbf565b80601f0160208091040260200160405190810160405280929190818152602001828054610ad490611fbf565b8015610b215780601f10610af657610100808354040283529160200191610b21565b820191906000526020600020905b815481529060010190602001808311610b0457829003601f168201915b5050505050815260200160048201548152602001600582018054610b4490611fbf565b80601f0160208091040260200160405190810160405280929190818152602001828054610b7090611fbf565b8015610bbd5780601f10610b9257610100808354040283529160200191610bbd565b820191906000526020600020905b815481529060010190602001808311610ba057829003601f168201915b505050505081525050815260200190600101906109bf565b50505050905090565b60008054905090565b6000885111610bf557600080fd5b6000865111610c0357600080fd5b600073ffffffffffffffffffffffffffffffffffffffff163373ffffffffffffffffffffffffffffffffffffffff161415610c3d57600080fd5b60016000815480929190610c5090611ff1565b919050555060405180610160016040528085151581526020016001548152602001898152602001888152602001878152602001868152602001600081526020013373ffffffffffffffffffffffffffffffffffffffff1681526020018481526020018381526020018281525060026000600154815260200190815260200160002060008201518160000160006101000a81548160ff021916908315150217905550602082015181600101556040820151816002019080519060200190610d17929190611502565b506060820151816003019080519060200190610d34929190611502565b506080820151816004019080519060200190610d51929190611502565b5060a0820151816005019080519060200190610d6e929190611502565b5060c0820151816006015560e08201518160070160006101000a81548173ffffffffffffffffffffffffffffffffffffffff021916908373ffffffffffffffffffffffffffffffffffffffff160217905550610100820151816008019080519060200190610ddd929190611502565b50610120820151816009019080519060200190610dfb929190611502565b5061014082015181600a019080519060200190610e19929190611502565b509050507f9494bddf4ff4896bd79c1d0546ee14305475dff9347fa0bbae6361a5bd7f3477846001548a8a8a8a6000338b8b8b604051610e639b9a99989796959493929190611beb565b60405180910390a15050505050505050565b60048181548110610e8557600080fd5b90600052602060002090600502016000915090508060000160009054906101000a900473ffffffffffffffffffffffffffffffffffffffff16908060010160009054906101000a900473ffffffffffffffffffffffffffffffffffffffff16908060020154908060030154908060040154905085565b60026020528060005260406000206000915090508060000160009054906101000a900460ff1690806001015490806002018054610f3790611fbf565b80601f0160208091040260200160405190810160405280929190818152602001828054610f6390611fbf565b8015610fb05780601f10610f8557610100808354040283529160200191610fb0565b820191906000526020600020905b815481529060010190602001808311610f9357829003601f168201915b505050505090806003018054610fc590611fbf565b80601f0160208091040260200160405190810160405280929190818152602001828054610ff190611fbf565b801561103e5780601f106110135761010080835404028352916020019161103e565b820191906000526020600020905b81548152906001019060200180831161102157829003601f168201915b50505050509080600401805461105390611fbf565b80601f016020809104026020016040519081016040528092919081815260200182805461107f90611fbf565b80156110cc5780601f106110a1576101008083540402835291602001916110cc565b820191906000526020600020905b8154815290600101906020018083116110af57829003601f168201915b5050505050908060050180546110e190611fbf565b80601f016020809104026020016040519081016040528092919081815260200182805461110d90611fbf565b801561115a5780601f1061112f5761010080835404028352916020019161115a565b820191906000526020600020905b81548152906001019060200180831161113d57829003601f168201915b5050505050908060060154908060070160009054906101000a900473ffffffffffffffffffffffffffffffffffffffff169080600801805461119b90611fbf565b80601f01602080910402602001604051908101604052809291908181526020018280546111c790611fbf565b80156112145780601f106111e957610100808354040283529160200191611214565b820191906000526020600020905b8154815290600101906020018083116111f757829003601f168201915b50505050509080600901805461122990611fbf565b80601f016020809104026020016040519081016040528092919081815260200182805461125590611fbf565b80156112a25780601f10611277576101008083540402835291602001916112a2565b820191906000526020600020905b81548152906001019060200180831161128557829003601f168201915b50505050509080600a0180546112b790611fbf565b80601f01602080910402602001604051908101604052809291908181526020018280546112e390611fbf565b80156113305780601f1061130557610100808354040283529160200191611330565b820191906000526020600020905b81548152906001019060200180831161131357829003601f168201915b505050505090508b565b600160008082825461134c9190611e85565b9250508190555060056040518060c001604052803373ffffffffffffffffffffffffffffffffffffffff1681526020018673ffffffffffffffffffffffffffffffffffffffff16815260200185815260200184815260200142815260200183815250908060018154018082558091505060019003906000526020600020906006020160009091909190915060008201518160000160006101000a81548173ffffffffffffffffffffffffffffffffffffffff021916908373ffffffffffffffffffffffffffffffffffffffff16021790555060208201518160010160006101000a81548173ffffffffffffffffffffffffffffffffffffffff021916908373ffffffffffffffffffffffffffffffffffffffff16021790555060408201518160020155606082015181600301908051906020019061148b929190611502565b506080820151816004015560a08201518160050190805190602001906114b2929190611502565b5050507f416cfa4330a4565f45c2fd2dd4826a83a37443aba2ce6f79477c7355afac35fa3385858542866040516114ee96959493929190611ab4565b60405180910390a150505050565b60035481565b82805461150e90611fbf565b90600052602060002090601f0160209004810192826115305760008555611577565b82601f1061154957805160ff1916838001178555611577565b82800160010185558215611577579182015b8281111561157657825182559160200191906001019061155b565b5b5090506115849190611588565b5090565b5b808211156115a1576000816000905550600101611589565b5090565b60006115b86115b384611def565b611dbe565b9050828152602081018484840111156115d057600080fd5b6115db848285611f7d565b509392505050565b6000813590506115f2816120d8565b92915050565b600081359050611607816120ef565b92915050565b600082601f83011261161e57600080fd5b813561162e8482602086016115a5565b91505092915050565b60008135905061164681612106565b92915050565b6000806000806080858703121561166257600080fd5b6000611670878288016115e3565b945050602061168187828801611637565b935050604085013567ffffffffffffffff81111561169e57600080fd5b6116aa8782880161160d565b925050606085013567ffffffffffffffff8111156116c757600080fd5b6116d38782880161160d565b91505092959194509250565b6000806000606084860312156116f457600080fd5b6000611702868287016115e3565b935050602061171386828701611637565b925050604061172486828701611637565b9150509250925092565b600080600080600080600080610100898b03121561174b57600080fd5b600089013567ffffffffffffffff81111561176557600080fd5b6117718b828c0161160d565b985050602089013567ffffffffffffffff81111561178e57600080fd5b61179a8b828c0161160d565b975050604089013567ffffffffffffffff8111156117b757600080fd5b6117c38b828c0161160d565b965050606089013567ffffffffffffffff8111156117e057600080fd5b6117ec8b828c0161160d565b95505060806117fd8b828c016115f8565b94505060a089013567ffffffffffffffff81111561181a57600080fd5b6118268b828c0161160d565b93505060c089013567ffffffffffffffff81111561184357600080fd5b61184f8b828c0161160d565b92505060e089013567ffffffffffffffff81111561186c57600080fd5b6118788b828c0161160d565b9150509295985092959890939650565b60006020828403121561189a57600080fd5b60006118a884828501611637565b91505092915050565b60006118bd8383611a06565b905092915050565b6118ce81611f35565b82525050565b6118dd81611eed565b82525050565b6118ec81611edb565b82525050565b6118fb81611edb565b82525050565b600061190c82611e2f565b6119168185611e52565b93508360208202850161192885611e1f565b8060005b85811015611964578484038952815161194585826118b1565b945061195083611e45565b925060208a0199505060018101905061192c565b50829750879550505050505092915050565b61197f81611eff565b82525050565b61198e81611f47565b82525050565b600061199f82611e3a565b6119a98185611e63565b93506119b9818560208601611f8c565b6119c2816120c7565b840191505092915050565b60006119d882611e3a565b6119e28185611e74565b93506119f2818560208601611f8c565b6119fb816120c7565b840191505092915050565b600060c083016000830151611a1e60008601826118e3565b506020830151611a3160208601826118e3565b506040830151611a446040860182611a96565b5060608301518482036060860152611a5c8282611994565b9150506080830151611a716080860182611a96565b5060a083015184820360a0860152611a898282611994565b9150508091505092915050565b611a9f81611f2b565b82525050565b611aae81611f2b565b82525050565b600060c082019050611ac960008301896118f2565b611ad660208301886118c5565b611ae36040830187611aa5565b8181036060830152611af581866119cd565b9050611b046080830185611aa5565b81810360a0830152611b1681846119cd565b9050979650505050505050565b600060a082019050611b3860008301886118f2565b611b4560208301876118c5565b611b526040830186611aa5565b611b5f6060830185611aa5565b611b6c6080830184611aa5565b9695505050505050565b600060a082019050611b8b60008301886118f2565b611b9860208301876118f2565b611ba56040830186611aa5565b611bb26060830185611aa5565b611bbf6080830184611aa5565b9695505050505050565b60006020820190508181036000830152611be38184611901565b905092915050565b600061016082019050611c01600083018e611976565b611c0e602083018d611aa5565b8181036040830152611c20818c6119cd565b90508181036060830152611c34818b6119cd565b90508181036080830152611c48818a6119cd565b905081810360a0830152611c5c81896119cd565b9050611c6b60c0830188611985565b611c7860e08301876118d4565b818103610100830152611c8b81866119cd565b9050818103610120830152611ca081856119cd565b9050818103610140830152611cb581846119cd565b90509c9b505050505050505050505050565b600061016082019050611cdd600083018e611976565b611cea602083018d611aa5565b8181036040830152611cfc818c6119cd565b90508181036060830152611d10818b6119cd565b90508181036080830152611d24818a6119cd565b905081810360a0830152611d3881896119cd565b9050611d4760c0830188611aa5565b611d5460e08301876118d4565b818103610100830152611d6781866119cd565b9050818103610120830152611d7c81856119cd565b9050818103610140830152611d9181846119cd565b90509c9b505050505050505050505050565b6000602082019050611db86000830184611aa5565b92915050565b6000604051905081810181811067ffffffffffffffff82111715611de557611de4612098565b5b8060405250919050565b600067ffffffffffffffff821115611e0a57611e09612098565b5b601f19601f8301169050602081019050919050565b6000819050602082019050919050565b600081519050919050565b600081519050919050565b6000602082019050919050565b600082825260208201905092915050565b600082825260208201905092915050565b600082825260208201905092915050565b6000611e9082611f2b565b9150611e9b83611f2b565b9250827fffffffffffffffffffffffffffffffffffffffffffffffffffffffffffffffff03821115611ed057611ecf61203a565b5b828201905092915050565b6000611ee682611f0b565b9050919050565b6000611ef882611f0b565b9050919050565b60008115159050919050565b600073ffffffffffffffffffffffffffffffffffffffff82169050919050565b6000819050919050565b6000611f4082611f59565b9050919050565b6000611f5282611f2b565b9050919050565b6000611f6482611f6b565b9050919050565b6000611f7682611f0b565b9050919050565b82818337600083830152505050565b60005b83811015611faa578082015181840152602081019050611f8f565b83811115611fb9576000848401525b50505050565b60006002820490506001821680611fd757607f821691505b60208210811415611feb57611fea612069565b5b50919050565b6000611ffc82611f2b565b91507fffffffffffffffffffffffffffffffffffffffffffffffffffffffffffffffff82141561202f5761202e61203a565b5b600182019050919050565b7f4e487b7100000000000000000000000000000000000000000000000000000000600052601160045260246000fd5b7f4e487b7100000000000000000000000000000000000000000000000000000000600052602260045260246000fd5b7f4e487b7100000000000000000000000000000000000000000000000000000000600052604160045260246000fd5b6000601f19601f8301169050919050565b6120e181611eed565b81146120ec57600080fd5b50565b6120f881611eff565b811461210357600080fd5b50565b61210f81611f2b565b811461211a57600080fd5b5056fea26469706673582212201d100b4d699ee76a3aae5cbf33795622b85d145594364f022c6aa3b5b5fabb7d64736f6c63430008000033",
  "linkReferences": {},
  "deployedLinkReferences": {}
}