{
  "_format": "hh-sol-artifact-1",
  "contractName": "Transactions",
  "sourceName": "contracts/Transactions.sol",
  "abi": [
    {
      "anonymous": false,
      "inputs": [
        {
          "indexed": false,
          "internalType": "bool",
          "name": "isImage",
          "type": "bool"
        },
        {
          "indexed": false,
          "internalType": "uint256",
          "name": "id",
          "type": "uint256"
        },
        {
          "indexed": false,
          "internalType": "string",
          "name": "hash",
          "type": "string"
        },
        {
          "indexed": false,
          "internalType": "string",
          "name": "title",
          "type": "string"
        },
        {
          "indexed": false,
          "internalType": "string",
          "name": "description",
          "type": "string"
        },
        {
          "indexed": false,
          "internalType": "string",
          "name": "category",
          "type": "string"
        },
        {
          "indexed": false,
          "internalType": "uint256",
          "name": "tipAmount",
          "type": "uint256"
        },
        {
          "indexed": false,
          "internalType": "address payable",
          "name": "author",
          "type": "address"
        },
        {
          "indexed": false,
          "internalType": "string",
          "name": "authorGmailName",
          "type": "string"
        },
        {
          "indexed": false,
          "internalType": "string",
          "name": "authorEmail",
          "type": "string"
        },
        {
          "indexed": false,
          "internalType": "string",
          "name": "authorPic",
          "type": "string"
        }
      ],
      "name": "PostCreated",
      "type": "event"
    },
    {
      "anonymous": false,
      "inputs": [
        {
          "indexed": false,
          "internalType": "bool",
          "name": "subscribe",
          "type": "bool"
        },
        {
          "indexed": false,
          "internalType": "address",
          "name": "author",
          "type": "address"
        },
        {
          "indexed": false,
          "internalType": "address",
          "name": "subscriber",
          "type": "address"
        },
        {
          "indexed": false,
          "internalType": "uint256",
          "name": "timestamp",
          "type": "uint256"
        }
      ],
      "name": "Subscribes",
      "type": "event"
    },
    {
      "anonymous": false,
      "inputs": [
        {
          "indexed": false,
          "internalType": "address",
          "name": "tipper",
          "type": "address"
        },
        {
          "indexed": false,
          "internalType": "address",
          "name": "author",
          "type": "address"
        },
        {
          "indexed": false,
          "internalType": "uint256",
          "name": "amount",
          "type": "uint256"
        },
        {
          "indexed": false,
          "internalType": "uint256",
          "name": "postId",
          "type": "uint256"
        },
        {
          "indexed": false,
          "internalType": "uint256",
          "name": "timestamp",
          "type": "uint256"
        }
      ],
      "name": "Tips",
      "type": "event"
    },
    {
      "anonymous": false,
      "inputs": [
        {
          "indexed": false,
          "internalType": "address",
          "name": "from",
          "type": "address"
        },
        {
          "indexed": false,
          "internalType": "address",
          "name": "receiver",
          "type": "address"
        },
        {
          "indexed": false,
          "internalType": "uint256",
          "name": "amount",
          "type": "uint256"
        },
        {
          "indexed": false,
          "internalType": "string",
          "name": "message",
          "type": "string"
        },
        {
          "indexed": false,
          "internalType": "uint256",
          "name": "timestamp",
          "type": "uint256"
        },
        {
          "indexed": false,
          "internalType": "string",
          "name": "keyword",
          "type": "string"
        }
      ],
      "name": "Transfer",
      "type": "event"
    },
    {
      "anonymous": false,
      "inputs": [
        {
          "indexed": false,
          "internalType": "address[]",
          "name": "followers",
          "type": "address[]"
        },
        {
          "indexed": false,
          "internalType": "address[]",
          "name": "subscribes",
          "type": "address[]"
        },
        {
          "indexed": false,
          "internalType": "bool",
          "name": "isUsed",
          "type": "bool"
        }
      ],
      "name": "UserCreated",
      "type": "event"
    },
    {
      "inputs": [
        {
          "internalType": "address payable",
          "name": "receiver",
          "type": "address"
        },
        {
          "internalType": "uint256",
          "name": "amount",
          "type": "uint256"
        },
        {
          "internalType": "string",
          "name": "message",
          "type": "string"
        },
        {
          "internalType": "string",
          "name": "keyword",
          "type": "string"
        }
      ],
      "name": "addToBlockchain",
      "outputs": [],
      "stateMutability": "nonpayable",
      "type": "function"
    },
    {
      "inputs": [
        {
          "internalType": "string",
          "name": "_postHash",
          "type": "string"
        },
        {
          "internalType": "string",
          "name": "_title",
          "type": "string"
        },
        {
          "internalType": "string",
          "name": "_description",
          "type": "string"
        },
        {
          "internalType": "string",
          "name": "_category",
          "type": "string"
        },
        {
          "internalType": "bool",
          "name": "isImage",
          "type": "bool"
        },
        {
          "internalType": "string",
          "name": "_authorGmailName",
          "type": "string"
        },
        {
          "internalType": "string",
          "name": "_authorEmail",
          "type": "string"
        },
        {
          "internalType": "string",
          "name": "_authorPic",
          "type": "string"
        }
      ],
      "name": "createPost",
      "outputs": [],
      "stateMutability": "nonpayable",
      "type": "function"
    },
    {
      "inputs": [],
      "name": "getAllTransactions",
      "outputs": [
        {
          "components": [
            {
              "internalType": "address",
              "name": "sender",
              "type": "address"
            },
            {
              "internalType": "address",
              "name": "receiver",
              "type": "address"
            },
            {
              "internalType": "uint256",
              "name": "amount",
              "type": "uint256"
            },
            {
              "internalType": "string",
              "name": "message",
              "type": "string"
            },
            {
              "internalType": "uint256",
              "name": "timestamp",
              "type": "uint256"
            },
            {
              "internalType": "string",
              "name": "keyword",
              "type": "string"
            }
          ],
          "internalType": "struct Transactions.TransferStruct[]",
          "name": "",
          "type": "tuple[]"
        }
      ],
      "stateMutability": "view",
      "type": "function"
    },
    {
      "inputs": [],
      "name": "getTransactionCount",
      "outputs": [
        {
          "internalType": "uint256",
          "name": "",
          "type": "uint256"
        }
      ],
      "stateMutability": "view",
      "type": "function"
    },
    {
      "inputs": [
        {
          "internalType": "uint256",
          "name": "",
          "type": "uint256"
        }
      ],
      "name": "post",
      "outputs": [
        {
          "internalType": "bool",
          "name": "isImage",
          "type": "bool"
        },
        {
          "internalType": "uint256",
          "name": "id",
          "type": "uint256"
        },
        {
          "internalType": "string",
          "name": "hash",
          "type": "string"
        },
        {
          "internalType": "string",
          "name": "title",
          "type": "string"
        },
        {
          "internalType": "string",
          "name": "description",
          "type": "string"
        },
        {
          "internalType": "string",
          "name": "category",
          "type": "string"
        },
        {
          "internalType": "uint256",
          "name": "tipAmount",
          "type": "uint256"
        },
        {
          "internalType": "address payable",
          "name": "author",
          "type": "address"
        },
        {
          "internalType": "string",
          "name": "authorGmailName",
          "type": "string"
        },
        {
          "internalType": "string",
          "name": "authorEmail",
          "type": "string"
        },
        {
          "internalType": "string",
          "name": "authorPic",
          "type": "string"
        }
      ],
      "stateMutability": "view",
      "type": "function"
    },
    {
      "inputs": [],
      "name": "postCount",
      "outputs": [
        {
          "internalType": "uint256",
          "name": "",
          "type": "uint256"
        }
      ],
      "stateMutability": "view",
      "type": "function"
    },
    {
      "inputs": [
        {
          "internalType": "address payable",
          "name": "author",
          "type": "address"
        },
        {
          "internalType": "uint256",
          "name": "amount",
          "type": "uint256"
        },
        {
          "internalType": "uint256",
          "name": "postId",
          "type": "uint256"
        }
      ],
      "name": "tipPostRecord",
      "outputs": [],
      "stateMutability": "nonpayable",
      "type": "function"
    },
    {
      "inputs": [
        {
          "internalType": "uint256",
          "name": "",
          "type": "uint256"
        }
      ],
      "name": "tipTx",
      "outputs": [
        {
          "internalType": "address",
          "name": "tipper",
          "type": "address"
        },
        {
          "internalType": "address",
          "name": "author",
          "type": "address"
        },
        {
          "internalType": "uint256",
          "name": "amount",
          "type": "uint256"
        },
        {
          "internalType": "uint256",
          "name": "postId",
          "type": "uint256"
        },
        {
          "internalType": "uint256",
          "name": "timestamp",
          "type": "uint256"
        }
      ],
      "stateMutability": "view",
      "type": "function"
    },
    {
      "inputs": [],
      "name": "tipsCount",
      "outputs": [
        {
          "internalType": "uint256",
          "name": "",
          "type": "uint256"
        }
      ],
      "stateMutability": "view",
      "type": "function"
    },
    {
      "inputs": [],
      "name": "userCount",
      "outputs": [
        {
          "internalType": "uint256",
          "name": "",
          "type": "uint256"
        }
      ],
      "stateMutability": "view",
      "type": "function"
    }
  ],
  "bytecode": "0x608060405260006001556000600355600060065534801561001f57600080fd5b506121828061002f6000396000f3fe608060405234801561001057600080fd5b506004361061009e5760003560e01c8063306d82f211610066578063306d82f21461013757806388ca6e8f14610153578063caa5863c14610187578063cc2d7ead146101c1578063da054b25146101dd5761009e565b806307973ccf146100a357806317906c2e146100c157806318a6282f146100df57806327506f53146100fb5780632e7700f014610119575b600080fd5b6100ab6101fb565b6040516100b89190611dd2565b60405180910390f35b6100c9610201565b6040516100d69190611dd2565b60405180910390f35b6100f960048036038101906100f4919061170e565b610207565b005b6101036109ca565b6040516101109190611bf8565b60405180910390f35b610121610c0d565b60405161012e9190611dd2565b60405180910390f35b610151600480360381019061014c919061175d565b610c16565b005b61016d600480360381019061016891906118b7565b610ea4565b60405161017e959493929190611ba5565b60405180910390f35b6101a1600480360381019061019c91906118b7565b610f2a565b6040516101b89b9a99989796959493929190611cf6565b60405180910390f35b6101db60048036038101906101d6919061167b565b611369565b005b6101e561152b565b6040516101f29190611dd2565b60405180910390f35b60065481565b60015481565b60008111801561021957506001548111155b61022257600080fd5b6003600081548092919061023590612020565b9190505550600060026000838152602001908152602001600020604051806101600160405290816000820160009054906101000a900460ff161515151581526020016001820154815260200160028201805461029090611fee565b80601f01602080910402602001604051908101604052809291908181526020018280546102bc90611fee565b80156103095780601f106102de57610100808354040283529160200191610309565b820191906000526020600020905b8154815290600101906020018083116102ec57829003601f168201915b5050505050815260200160038201805461032290611fee565b80601f016020809104026020016040519081016040528092919081815260200182805461034e90611fee565b801561039b5780601f106103705761010080835404028352916020019161039b565b820191906000526020600020905b81548152906001019060200180831161037e57829003601f168201915b505050505081526020016004820180546103b490611fee565b80601f01602080910402602001604051908101604052809291908181526020018280546103e090611fee565b801561042d5780601f106104025761010080835404028352916020019161042d565b820191906000526020600020905b81548152906001019060200180831161041057829003601f168201915b5050505050815260200160058201805461044690611fee565b80601f016020809104026020016040519081016040528092919081815260200182805461047290611fee565b80156104bf5780601f10610494576101008083540402835291602001916104bf565b820191906000526020600020905b8154815290600101906020018083116104a257829003601f168201915b50505050508152602001600682015481526020016007820160009054906101000a900473ffffffffffffffffffffffffffffffffffffffff1673ffffffffffffffffffffffffffffffffffffffff1673ffffffffffffffffffffffffffffffffffffffff16815260200160088201805461053890611fee565b80601f016020809104026020016040519081016040528092919081815260200182805461056490611fee565b80156105b15780601f10610586576101008083540402835291602001916105b1565b820191906000526020600020905b81548152906001019060200180831161059457829003601f168201915b505050505081526020016009820180546105ca90611fee565b80601f01602080910402602001604051908101604052809291908181526020018280546105f690611fee565b80156106435780601f1061061857610100808354040283529160200191610643565b820191906000526020600020905b81548152906001019060200180831161062657829003601f168201915b50505050508152602001600a8201805461065c90611fee565b80601f016020809104026020016040519081016040528092919081815260200182805461068890611fee565b80156106d55780601f106106aa576101008083540402835291602001916106d5565b820191906000526020600020905b8154815290600101906020018083116106b857829003601f168201915b5050505050815250509050828160c001516106f09190611eb4565b8160c0018181525050806002600084815260200190815260200160002060008201518160000160006101000a81548160ff021916908315150217905550602082015181600101556040820151816002019080519060200190610753929190611531565b506060820151816003019080519060200190610770929190611531565b50608082015181600401908051906020019061078d929190611531565b5060a08201518160050190805190602001906107aa929190611531565b5060c0820151816006015560e08201518160070160006101000a81548173ffffffffffffffffffffffffffffffffffffffff021916908373ffffffffffffffffffffffffffffffffffffffff160217905550610100820151816008019080519060200190610819929190611531565b50610120820151816009019080519060200190610837929190611531565b5061014082015181600a019080519060200190610855929190611531565b5090505060046040518060a001604052803373ffffffffffffffffffffffffffffffffffffffff1681526020018673ffffffffffffffffffffffffffffffffffffffff16815260200185815260200184815260200142815250908060018154018082558091505060019003906000526020600020906005020160009091909190915060008201518160000160006101000a81548173ffffffffffffffffffffffffffffffffffffffff021916908373ffffffffffffffffffffffffffffffffffffffff16021790555060208201518160010160006101000a81548173ffffffffffffffffffffffffffffffffffffffff021916908373ffffffffffffffffffffffffffffffffffffffff16021790555060408201518160020155606082015181600301556080820151816004015550507f0c26edcaeeec6914ac15ceb3f13a522a234f2ecce954c072ecd8aff3b2bf53f733858585426040516109bc959493929190611b52565b60405180910390a150505050565b60606007805480602002602001604051908101604052809291908181526020016000905b82821015610c0457838290600052602060002090600602016040518060c00160405290816000820160009054906101000a900473ffffffffffffffffffffffffffffffffffffffff1673ffffffffffffffffffffffffffffffffffffffff1673ffffffffffffffffffffffffffffffffffffffff1681526020016001820160009054906101000a900473ffffffffffffffffffffffffffffffffffffffff1673ffffffffffffffffffffffffffffffffffffffff1673ffffffffffffffffffffffffffffffffffffffff16815260200160028201548152602001600382018054610ad790611fee565b80601f0160208091040260200160405190810160405280929190818152602001828054610b0390611fee565b8015610b505780601f10610b2557610100808354040283529160200191610b50565b820191906000526020600020905b815481529060010190602001808311610b3357829003601f168201915b5050505050815260200160048201548152602001600582018054610b7390611fee565b80601f0160208091040260200160405190810160405280929190818152602001828054610b9f90611fee565b8015610bec5780601f10610bc157610100808354040283529160200191610bec565b820191906000526020600020905b815481529060010190602001808311610bcf57829003601f168201915b505050505081525050815260200190600101906109ee565b50505050905090565b60008054905090565b6000885111610c2457600080fd5b6000865111610c3257600080fd5b600073ffffffffffffffffffffffffffffffffffffffff163373ffffffffffffffffffffffffffffffffffffffff161415610c6c57600080fd5b60016000815480929190610c7f90612020565b919050555060405180610160016040528085151581526020016001548152602001898152602001888152602001878152602001868152602001600081526020013373ffffffffffffffffffffffffffffffffffffffff1681526020018481526020018381526020018281525060026000600154815260200190815260200160002060008201518160000160006101000a81548160ff021916908315150217905550602082015181600101556040820151816002019080519060200190610d46929190611531565b506060820151816003019080519060200190610d63929190611531565b506080820151816004019080519060200190610d80929190611531565b5060a0820151816005019080519060200190610d9d929190611531565b5060c0820151816006015560e08201518160070160006101000a81548173ffffffffffffffffffffffffffffffffffffffff021916908373ffffffffffffffffffffffffffffffffffffffff160217905550610100820151816008019080519060200190610e0c929190611531565b50610120820151816009019080519060200190610e2a929190611531565b5061014082015181600a019080519060200190610e48929190611531565b509050507f9494bddf4ff4896bd79c1d0546ee14305475dff9347fa0bbae6361a5bd7f3477846001548a8a8a8a6000338b8b8b604051610e929b9a99989796959493929190611c1a565b60405180910390a15050505050505050565b60048181548110610eb457600080fd5b90600052602060002090600502016000915090508060000160009054906101000a900473ffffffffffffffffffffffffffffffffffffffff16908060010160009054906101000a900473ffffffffffffffffffffffffffffffffffffffff16908060020154908060030154908060040154905085565b60026020528060005260406000206000915090508060000160009054906101000a900460ff1690806001015490806002018054610f6690611fee565b80601f0160208091040260200160405190810160405280929190818152602001828054610f9290611fee565b8015610fdf5780601f10610fb457610100808354040283529160200191610fdf565b820191906000526020600020905b815481529060010190602001808311610fc257829003601f168201915b505050505090806003018054610ff490611fee565b80601f016020809104026020016040519081016040528092919081815260200182805461102090611fee565b801561106d5780601f106110425761010080835404028352916020019161106d565b820191906000526020600020905b81548152906001019060200180831161105057829003601f168201915b50505050509080600401805461108290611fee565b80601f01602080910402602001604051908101604052809291908181526020018280546110ae90611fee565b80156110fb5780601f106110d0576101008083540402835291602001916110fb565b820191906000526020600020905b8154815290600101906020018083116110de57829003601f168201915b50505050509080600501805461111090611fee565b80601f016020809104026020016040519081016040528092919081815260200182805461113c90611fee565b80156111895780601f1061115e57610100808354040283529160200191611189565b820191906000526020600020905b81548152906001019060200180831161116c57829003601f168201915b5050505050908060060154908060070160009054906101000a900473ffffffffffffffffffffffffffffffffffffffff16908060080180546111ca90611fee565b80601f01602080910402602001604051908101604052809291908181526020018280546111f690611fee565b80156112435780601f1061121857610100808354040283529160200191611243565b820191906000526020600020905b81548152906001019060200180831161122657829003601f168201915b50505050509080600901805461125890611fee565b80601f016020809104026020016040519081016040528092919081815260200182805461128490611fee565b80156112d15780601f106112a6576101008083540402835291602001916112d1565b820191906000526020600020905b8154815290600101906020018083116112b457829003601f168201915b50505050509080600a0180546112e690611fee565b80601f016020809104026020016040519081016040528092919081815260200182805461131290611fee565b801561135f5780601f106113345761010080835404028352916020019161135f565b820191906000526020600020905b81548152906001019060200180831161134257829003601f168201915b505050505090508b565b600160008082825461137b9190611eb4565b9250508190555060076040518060c001604052803373ffffffffffffffffffffffffffffffffffffffff1681526020018673ffffffffffffffffffffffffffffffffffffffff16815260200185815260200184815260200142815260200183815250908060018154018082558091505060019003906000526020600020906006020160009091909190915060008201518160000160006101000a81548173ffffffffffffffffffffffffffffffffffffffff021916908373ffffffffffffffffffffffffffffffffffffffff16021790555060208201518160010160006101000a81548173ffffffffffffffffffffffffffffffffffffffff021916908373ffffffffffffffffffffffffffffffffffffffff1602179055506040820151816002015560608201518160030190805190602001906114ba929190611531565b506080820151816004015560a08201518160050190805190602001906114e1929190611531565b5050507f416cfa4330a4565f45c2fd2dd4826a83a37443aba2ce6f79477c7355afac35fa33858585428660405161151d96959493929190611ae3565b60405180910390a150505050565b60035481565b82805461153d90611fee565b90600052602060002090601f01602090048101928261155f57600085556115a6565b82601f1061157857805160ff19168380011785556115a6565b828001600101855582156115a6579182015b828111156115a557825182559160200191906001019061158a565b5b5090506115b391906115b7565b5090565b5b808211156115d05760008160009055506001016115b8565b5090565b60006115e76115e284611e1e565b611ded565b9050828152602081018484840111156115ff57600080fd5b61160a848285611fac565b509392505050565b60008135905061162181612107565b92915050565b6000813590506116368161211e565b92915050565b600082601f83011261164d57600080fd5b813561165d8482602086016115d4565b91505092915050565b60008135905061167581612135565b92915050565b6000806000806080858703121561169157600080fd5b600061169f87828801611612565b94505060206116b087828801611666565b935050604085013567ffffffffffffffff8111156116cd57600080fd5b6116d98782880161163c565b925050606085013567ffffffffffffffff8111156116f657600080fd5b6117028782880161163c565b91505092959194509250565b60008060006060848603121561172357600080fd5b600061173186828701611612565b935050602061174286828701611666565b925050604061175386828701611666565b9150509250925092565b600080600080600080600080610100898b03121561177a57600080fd5b600089013567ffffffffffffffff81111561179457600080fd5b6117a08b828c0161163c565b985050602089013567ffffffffffffffff8111156117bd57600080fd5b6117c98b828c0161163c565b975050604089013567ffffffffffffffff8111156117e657600080fd5b6117f28b828c0161163c565b965050606089013567ffffffffffffffff81111561180f57600080fd5b61181b8b828c0161163c565b955050608061182c8b828c01611627565b94505060a089013567ffffffffffffffff81111561184957600080fd5b6118558b828c0161163c565b93505060c089013567ffffffffffffffff81111561187257600080fd5b61187e8b828c0161163c565b92505060e089013567ffffffffffffffff81111561189b57600080fd5b6118a78b828c0161163c565b9150509295985092959890939650565b6000602082840312156118c957600080fd5b60006118d784828501611666565b91505092915050565b60006118ec8383611a35565b905092915050565b6118fd81611f64565b82525050565b61190c81611f1c565b82525050565b61191b81611f0a565b82525050565b61192a81611f0a565b82525050565b600061193b82611e5e565b6119458185611e81565b93508360208202850161195785611e4e565b8060005b85811015611993578484038952815161197485826118e0565b945061197f83611e74565b925060208a0199505060018101905061195b565b50829750879550505050505092915050565b6119ae81611f2e565b82525050565b6119bd81611f76565b82525050565b60006119ce82611e69565b6119d88185611e92565b93506119e8818560208601611fbb565b6119f1816120f6565b840191505092915050565b6000611a0782611e69565b611a118185611ea3565b9350611a21818560208601611fbb565b611a2a816120f6565b840191505092915050565b600060c083016000830151611a4d6000860182611912565b506020830151611a606020860182611912565b506040830151611a736040860182611ac5565b5060608301518482036060860152611a8b82826119c3565b9150506080830151611aa06080860182611ac5565b5060a083015184820360a0860152611ab882826119c3565b9150508091505092915050565b611ace81611f5a565b82525050565b611add81611f5a565b82525050565b600060c082019050611af86000830189611921565b611b0560208301886118f4565b611b126040830187611ad4565b8181036060830152611b2481866119fc565b9050611b336080830185611ad4565b81810360a0830152611b4581846119fc565b9050979650505050505050565b600060a082019050611b676000830188611921565b611b7460208301876118f4565b611b816040830186611ad4565b611b8e6060830185611ad4565b611b9b6080830184611ad4565b9695505050505050565b600060a082019050611bba6000830188611921565b611bc76020830187611921565b611bd46040830186611ad4565b611be16060830185611ad4565b611bee6080830184611ad4565b9695505050505050565b60006020820190508181036000830152611c128184611930565b905092915050565b600061016082019050611c30600083018e6119a5565b611c3d602083018d611ad4565b8181036040830152611c4f818c6119fc565b90508181036060830152611c63818b6119fc565b90508181036080830152611c77818a6119fc565b905081810360a0830152611c8b81896119fc565b9050611c9a60c08301886119b4565b611ca760e0830187611903565b818103610100830152611cba81866119fc565b9050818103610120830152611ccf81856119fc565b9050818103610140830152611ce481846119fc565b90509c9b505050505050505050505050565b600061016082019050611d0c600083018e6119a5565b611d19602083018d611ad4565b8181036040830152611d2b818c6119fc565b90508181036060830152611d3f818b6119fc565b90508181036080830152611d53818a6119fc565b905081810360a0830152611d6781896119fc565b9050611d7660c0830188611ad4565b611d8360e0830187611903565b818103610100830152611d9681866119fc565b9050818103610120830152611dab81856119fc565b9050818103610140830152611dc081846119fc565b90509c9b505050505050505050505050565b6000602082019050611de76000830184611ad4565b92915050565b6000604051905081810181811067ffffffffffffffff82111715611e1457611e136120c7565b5b8060405250919050565b600067ffffffffffffffff821115611e3957611e386120c7565b5b601f19601f8301169050602081019050919050565b6000819050602082019050919050565b600081519050919050565b600081519050919050565b6000602082019050919050565b600082825260208201905092915050565b600082825260208201905092915050565b600082825260208201905092915050565b6000611ebf82611f5a565b9150611eca83611f5a565b9250827fffffffffffffffffffffffffffffffffffffffffffffffffffffffffffffffff03821115611eff57611efe612069565b5b828201905092915050565b6000611f1582611f3a565b9050919050565b6000611f2782611f3a565b9050919050565b60008115159050919050565b600073ffffffffffffffffffffffffffffffffffffffff82169050919050565b6000819050919050565b6000611f6f82611f88565b9050919050565b6000611f8182611f5a565b9050919050565b6000611f9382611f9a565b9050919050565b6000611fa582611f3a565b9050919050565b82818337600083830152505050565b60005b83811015611fd9578082015181840152602081019050611fbe565b83811115611fe8576000848401525b50505050565b6000600282049050600182168061200657607f821691505b6020821081141561201a57612019612098565b5b50919050565b600061202b82611f5a565b91507fffffffffffffffffffffffffffffffffffffffffffffffffffffffffffffffff82141561205e5761205d612069565b5b600182019050919050565b7f4e487b7100000000000000000000000000000000000000000000000000000000600052601160045260246000fd5b7f4e487b7100000000000000000000000000000000000000000000000000000000600052602260045260246000fd5b7f4e487b7100000000000000000000000000000000000000000000000000000000600052604160045260246000fd5b6000601f19601f8301169050919050565b61211081611f1c565b811461211b57600080fd5b50565b61212781611f2e565b811461213257600080fd5b50565b61213e81611f5a565b811461214957600080fd5b5056fea2646970667358221220810d827b80fb3bbef231cf9706f08e4ebff8d61479a8b53f57e69a9fe6052a2c64736f6c63430008000033",
  "linkReferences": {},
  "deployedLinkReferences": {}
}