{
    "_format": "hh-sol-artifact-1",
    "contractName": "Transactions",
    "sourceName": "contracts/Transactions.sol",
    "abi": [
        {
            "anonymous": false,
            "inputs": [
                {
                    "indexed": false,
                    "internalType": "bool",
                    "name": "isImage",
                    "type": "bool"
                },
                {
                    "indexed": false,
                    "internalType": "uint256",
                    "name": "id",
                    "type": "uint256"
                },
                {
                    "indexed": false,
                    "internalType": "string",
                    "name": "hash",
                    "type": "string"
                },
                {
                    "indexed": false,
                    "internalType": "string",
                    "name": "title",
                    "type": "string"
                },
                {
                    "indexed": false,
                    "internalType": "string",
                    "name": "description",
                    "type": "string"
                },
                {
                    "indexed": false,
                    "internalType": "string",
                    "name": "category",
                    "type": "string"
                },
                {
                    "indexed": false,
                    "internalType": "uint256",
                    "name": "tipAmount",
                    "type": "uint256"
                },
                {
                    "indexed": false,
                    "internalType": "address payable",
                    "name": "author",
                    "type": "address"
                }
            ],
            "name": "PostCreated",
            "type": "event"
        },
        {
            "anonymous": false,
            "inputs": [
                {
                    "indexed": false,
                    "internalType": "address",
                    "name": "from",
                    "type": "address"
                },
                {
                    "indexed": false,
                    "internalType": "address",
                    "name": "receiver",
                    "type": "address"
                },
                {
                    "indexed": false,
                    "internalType": "uint256",
                    "name": "amount",
                    "type": "uint256"
                },
                {
                    "indexed": false,
                    "internalType": "string",
                    "name": "message",
                    "type": "string"
                },
                {
                    "indexed": false,
                    "internalType": "uint256",
                    "name": "timestamp",
                    "type": "uint256"
                },
                {
                    "indexed": false,
                    "internalType": "string",
                    "name": "keyword",
                    "type": "string"
                }
            ],
            "name": "Transfer",
            "type": "event"
        },
        {
            "inputs": [
                {
                    "internalType": "address payable",
                    "name": "receiver",
                    "type": "address"
                },
                {
                    "internalType": "uint256",
                    "name": "amount",
                    "type": "uint256"
                },
                {
                    "internalType": "string",
                    "name": "message",
                    "type": "string"
                },
                {
                    "internalType": "string",
                    "name": "keyword",
                    "type": "string"
                }
            ],
            "name": "addToBlockchain",
            "outputs": [],
            "stateMutability": "nonpayable",
            "type": "function"
        },
        {
            "inputs": [
                {
                    "internalType": "string",
                    "name": "_postHash",
                    "type": "string"
                },
                {
                    "internalType": "string",
                    "name": "_title",
                    "type": "string"
                },
                {
                    "internalType": "string",
                    "name": "_description",
                    "type": "string"
                },
                {
                    "internalType": "string",
                    "name": "_category",
                    "type": "string"
                },
                {
                    "internalType": "bool",
                    "name": "isImage",
                    "type": "bool"
                }
            ],
            "name": "createPost",
            "outputs": [],
            "stateMutability": "nonpayable",
            "type": "function"
        },
        {
            "inputs": [],
            "name": "getAllTransactions",
            "outputs": [
                {
                    "components": [
                        {
                            "internalType": "address",
                            "name": "sender",
                            "type": "address"
                        },
                        {
                            "internalType": "address",
                            "name": "receiver",
                            "type": "address"
                        },
                        {
                            "internalType": "uint256",
                            "name": "amount",
                            "type": "uint256"
                        },
                        {
                            "internalType": "string",
                            "name": "message",
                            "type": "string"
                        },
                        {
                            "internalType": "uint256",
                            "name": "timestamp",
                            "type": "uint256"
                        },
                        {
                            "internalType": "string",
                            "name": "keyword",
                            "type": "string"
                        }
                    ],
                    "internalType": "struct Transactions.TransferStruct[]",
                    "name": "",
                    "type": "tuple[]"
                }
            ],
            "stateMutability": "view",
            "type": "function"
        },
        {
            "inputs": [],
            "name": "getTransactionCount",
            "outputs": [
                {
                    "internalType": "uint256",
                    "name": "",
                    "type": "uint256"
                }
            ],
            "stateMutability": "view",
            "type": "function"
        },
        {
            "inputs": [
                {
                    "internalType": "uint256",
                    "name": "",
                    "type": "uint256"
                }
            ],
            "name": "post",
            "outputs": [
                {
                    "internalType": "bool",
                    "name": "isImage",
                    "type": "bool"
                },
                {
                    "internalType": "uint256",
                    "name": "id",
                    "type": "uint256"
                },
                {
                    "internalType": "string",
                    "name": "hash",
                    "type": "string"
                },
                {
                    "internalType": "string",
                    "name": "title",
                    "type": "string"
                },
                {
                    "internalType": "string",
                    "name": "description",
                    "type": "string"
                },
                {
                    "internalType": "string",
                    "name": "category",
                    "type": "string"
                },
                {
                    "internalType": "uint256",
                    "name": "tipAmount",
                    "type": "uint256"
                },
                {
                    "internalType": "address payable",
                    "name": "author",
                    "type": "address"
                }
            ],
            "stateMutability": "view",
            "type": "function"
        },
        {
            "inputs": [],
            "name": "postCount",
            "outputs": [
                {
                    "internalType": "uint256",
                    "name": "",
                    "type": "uint256"
                }
            ],
            "stateMutability": "view",
            "type": "function"
        }
    ],
    "bytecode": "0x6080604052600060015534801561001557600080fd5b50611447806100256000396000f3fe608060405234801561001057600080fd5b50600436106100625760003560e01c806317906c2e1461006757806327506f53146100855780632e7700f0146100a3578063c091c6d0146100c1578063caa5863c146100dd578063cc2d7ead14610114575b600080fd5b61006f610130565b60405161007c9190611097565b60405180910390f35b61008d610136565b60405161009a9190610f41565b60405180910390f35b6100ab610379565b6040516100b89190611097565b60405180910390f35b6100db60048036038101906100d69190610bcf565b610382565b005b6100f760048036038101906100f29190610ca6565b61059b565b60405161010b989796959493929190610ffd565b60405180910390f35b61012e60048036038101906101299190610b3c565b610830565b005b60015481565b60606003805480602002602001604051908101604052809291908181526020016000905b8282101561037057838290600052602060002090600602016040518060c00160405290816000820160009054906101000a900473ffffffffffffffffffffffffffffffffffffffff1673ffffffffffffffffffffffffffffffffffffffff1673ffffffffffffffffffffffffffffffffffffffff1681526020016001820160009054906101000a900473ffffffffffffffffffffffffffffffffffffffff1673ffffffffffffffffffffffffffffffffffffffff1673ffffffffffffffffffffffffffffffffffffffff16815260200160028201548152602001600382018054610243906112b3565b80601f016020809104026020016040519081016040528092919081815260200182805461026f906112b3565b80156102bc5780601f10610291576101008083540402835291602001916102bc565b820191906000526020600020905b81548152906001019060200180831161029f57829003601f168201915b50505050508152602001600482015481526020016005820180546102df906112b3565b80601f016020809104026020016040519081016040528092919081815260200182805461030b906112b3565b80156103585780601f1061032d57610100808354040283529160200191610358565b820191906000526020600020905b81548152906001019060200180831161033b57829003601f168201915b5050505050815250508152602001906001019061015a565b50505050905090565b60008054905090565b600085511161039057600080fd5b600083511161039e57600080fd5b600073ffffffffffffffffffffffffffffffffffffffff163373ffffffffffffffffffffffffffffffffffffffff1614156103d857600080fd5b600160008154809291906103eb906112e5565b919050555060405180610100016040528082151581526020016001548152602001868152602001858152602001848152602001838152602001600081526020013373ffffffffffffffffffffffffffffffffffffffff1681525060026000600154815260200190815260200160002060008201518160000160006101000a81548160ff0219169083151502179055506020820151816001015560408201518160020190805190602001906104a09291906109f2565b5060608201518160030190805190602001906104bd9291906109f2565b5060808201518160040190805190602001906104da9291906109f2565b5060a08201518160050190805190602001906104f79291906109f2565b5060c0820151816006015560e08201518160070160006101000a81548173ffffffffffffffffffffffffffffffffffffffff021916908373ffffffffffffffffffffffffffffffffffffffff1602179055509050507f4a83b92401b2938a65361ffb498465f7f0347f40f85b1ec31cd23719eac3eeba816001548787878760003360405161058c989796959493929190610f63565b60405180910390a15050505050565b60026020528060005260406000206000915090508060000160009054906101000a900460ff16908060010154908060020180546105d7906112b3565b80601f0160208091040260200160405190810160405280929190818152602001828054610603906112b3565b80156106505780601f1061062557610100808354040283529160200191610650565b820191906000526020600020905b81548152906001019060200180831161063357829003601f168201915b505050505090806003018054610665906112b3565b80601f0160208091040260200160405190810160405280929190818152602001828054610691906112b3565b80156106de5780601f106106b3576101008083540402835291602001916106de565b820191906000526020600020905b8154815290600101906020018083116106c157829003601f168201915b5050505050908060040180546106f3906112b3565b80601f016020809104026020016040519081016040528092919081815260200182805461071f906112b3565b801561076c5780601f106107415761010080835404028352916020019161076c565b820191906000526020600020905b81548152906001019060200180831161074f57829003601f168201915b505050505090806005018054610781906112b3565b80601f01602080910402602001604051908101604052809291908181526020018280546107ad906112b3565b80156107fa5780601f106107cf576101008083540402835291602001916107fa565b820191906000526020600020905b8154815290600101906020018083116107dd57829003601f168201915b5050505050908060060154908060070160009054906101000a900473ffffffffffffffffffffffffffffffffffffffff16905088565b60016000808282546108429190611179565b9250508190555060036040518060c001604052803373ffffffffffffffffffffffffffffffffffffffff1681526020018673ffffffffffffffffffffffffffffffffffffffff16815260200185815260200184815260200142815260200183815250908060018154018082558091505060019003906000526020600020906006020160009091909190915060008201518160000160006101000a81548173ffffffffffffffffffffffffffffffffffffffff021916908373ffffffffffffffffffffffffffffffffffffffff16021790555060208201518160010160006101000a81548173ffffffffffffffffffffffffffffffffffffffff021916908373ffffffffffffffffffffffffffffffffffffffff1602179055506040820151816002015560608201518160030190805190602001906109819291906109f2565b506080820151816004015560a08201518160050190805190602001906109a89291906109f2565b5050507f416cfa4330a4565f45c2fd2dd4826a83a37443aba2ce6f79477c7355afac35fa3385858542866040516109e496959493929190610ed2565b60405180910390a150505050565b8280546109fe906112b3565b90600052602060002090601f016020900481019282610a205760008555610a67565b82601f10610a3957805160ff1916838001178555610a67565b82800160010185558215610a67579182015b82811115610a66578251825591602001919060010190610a4b565b5b509050610a749190610a78565b5090565b5b80821115610a91576000816000905550600101610a79565b5090565b6000610aa8610aa3846110e3565b6110b2565b905082815260208101848484011115610ac057600080fd5b610acb848285611271565b509392505050565b600081359050610ae2816113cc565b92915050565b600081359050610af7816113e3565b92915050565b600082601f830112610b0e57600080fd5b8135610b1e848260208601610a95565b91505092915050565b600081359050610b36816113fa565b92915050565b60008060008060808587031215610b5257600080fd5b6000610b6087828801610ad3565b9450506020610b7187828801610b27565b935050604085013567ffffffffffffffff811115610b8e57600080fd5b610b9a87828801610afd565b925050606085013567ffffffffffffffff811115610bb757600080fd5b610bc387828801610afd565b91505092959194509250565b600080600080600060a08688031215610be757600080fd5b600086013567ffffffffffffffff811115610c0157600080fd5b610c0d88828901610afd565b955050602086013567ffffffffffffffff811115610c2a57600080fd5b610c3688828901610afd565b945050604086013567ffffffffffffffff811115610c5357600080fd5b610c5f88828901610afd565b935050606086013567ffffffffffffffff811115610c7c57600080fd5b610c8888828901610afd565b9250506080610c9988828901610ae8565b9150509295509295909350565b600060208284031215610cb857600080fd5b6000610cc684828501610b27565b91505092915050565b6000610cdb8383610e24565b905092915050565b610cec81611229565b82525050565b610cfb816111e1565b82525050565b610d0a816111cf565b82525050565b610d19816111cf565b82525050565b6000610d2a82611123565b610d348185611146565b935083602082028501610d4685611113565b8060005b85811015610d825784840389528151610d638582610ccf565b9450610d6e83611139565b925060208a01995050600181019050610d4a565b50829750879550505050505092915050565b610d9d816111f3565b82525050565b610dac8161123b565b82525050565b6000610dbd8261112e565b610dc78185611157565b9350610dd7818560208601611280565b610de0816113bb565b840191505092915050565b6000610df68261112e565b610e008185611168565b9350610e10818560208601611280565b610e19816113bb565b840191505092915050565b600060c083016000830151610e3c6000860182610d01565b506020830151610e4f6020860182610d01565b506040830151610e626040860182610eb4565b5060608301518482036060860152610e7a8282610db2565b9150506080830151610e8f6080860182610eb4565b5060a083015184820360a0860152610ea78282610db2565b9150508091505092915050565b610ebd8161121f565b82525050565b610ecc8161121f565b82525050565b600060c082019050610ee76000830189610d10565b610ef46020830188610ce3565b610f016040830187610ec3565b8181036060830152610f138186610deb565b9050610f226080830185610ec3565b81810360a0830152610f348184610deb565b9050979650505050505050565b60006020820190508181036000830152610f5b8184610d1f565b905092915050565b600061010082019050610f79600083018b610d94565b610f86602083018a610ec3565b8181036040830152610f988189610deb565b90508181036060830152610fac8188610deb565b90508181036080830152610fc08187610deb565b905081810360a0830152610fd48186610deb565b9050610fe360c0830185610da3565b610ff060e0830184610cf2565b9998505050505050505050565b600061010082019050611013600083018b610d94565b611020602083018a610ec3565b81810360408301526110328189610deb565b905081810360608301526110468188610deb565b9050818103608083015261105a8187610deb565b905081810360a083015261106e8186610deb565b905061107d60c0830185610ec3565b61108a60e0830184610cf2565b9998505050505050505050565b60006020820190506110ac6000830184610ec3565b92915050565b6000604051905081810181811067ffffffffffffffff821117156110d9576110d861138c565b5b8060405250919050565b600067ffffffffffffffff8211156110fe576110fd61138c565b5b601f19601f8301169050602081019050919050565b6000819050602082019050919050565b600081519050919050565b600081519050919050565b6000602082019050919050565b600082825260208201905092915050565b600082825260208201905092915050565b600082825260208201905092915050565b60006111848261121f565b915061118f8361121f565b9250827fffffffffffffffffffffffffffffffffffffffffffffffffffffffffffffffff038211156111c4576111c361132e565b5b828201905092915050565b60006111da826111ff565b9050919050565b60006111ec826111ff565b9050919050565b60008115159050919050565b600073ffffffffffffffffffffffffffffffffffffffff82169050919050565b6000819050919050565b60006112348261124d565b9050919050565b60006112468261121f565b9050919050565b60006112588261125f565b9050919050565b600061126a826111ff565b9050919050565b82818337600083830152505050565b60005b8381101561129e578082015181840152602081019050611283565b838111156112ad576000848401525b50505050565b600060028204905060018216806112cb57607f821691505b602082108114156112df576112de61135d565b5b50919050565b60006112f08261121f565b91507fffffffffffffffffffffffffffffffffffffffffffffffffffffffffffffffff8214156113235761132261132e565b5b600182019050919050565b7f4e487b7100000000000000000000000000000000000000000000000000000000600052601160045260246000fd5b7f4e487b7100000000000000000000000000000000000000000000000000000000600052602260045260246000fd5b7f4e487b7100000000000000000000000000000000000000000000000000000000600052604160045260246000fd5b6000601f19601f8301169050919050565b6113d5816111e1565b81146113e057600080fd5b50565b6113ec816111f3565b81146113f757600080fd5b50565b6114038161121f565b811461140e57600080fd5b5056fea2646970667358221220e23c35ab3e57e304ec46cf38d346caf0121dc050eac5281a6c520603e4b0546364736f6c63430008000033",
    "linkReferences": {},
    "deployedLinkReferences": {}
}